:020000040800F2
:100000000050002091100008DB100008DD100008EF
:10001000DF100008E1100008E310000800000000F5
:10002000000000000000000000000000E5100008D3
:10003000E710000800000000E9100008BD0D0008EE
:10004000D9100008D9100008D9100008D9100008EC
:10005000D9100008D9100008D9100008D9100008DC
:10006000D9100008D9100008D9100008D9100008CC
:10007000D9100008D9100008D9100008D9100008BC
:10008000D9100008D9100008D9100008D9100008AC
:10009000D9100008D9100008D9100008D91000089C
:1000A000D9100008D9100008D9100008D91000088C
:1000B000D9100008D9100008D9100008D91000087C
:1000C000D9100008D9100008D9100008D91000086C
:1000D000D9100008710C0008D9100008D9100008C8
:1000E000D9100008D9100008D9100008000000003D
:1000F0000000000000000000000000000000000000
:0C01000000000000000000005FF808F1A3
:10010C0010B5054C237833B9044B13B10448AFF345
:10011C0000800123237010BD0C02002000000000A1
:10012C000C01000808B5034B1BB103490348AFF39E
:10013C00008008BD00000000100200200C01000827
:10014C00034A136803F0380303431360704700BF7E
:10015C0000200240044B196821F0100119601A6844
:10016C0002431A60704700BF0020024030B5CB78C4
:10017C0003F00F02964613F0100F03D091F802E033
:10018C004EEA020E0B7803B30468002301E04261CF
:10019C000133072B18D801229A40B1F800C032EA7B
:1001AC000C05F5D14FEA830C0F2505FA0CF524EA62
:1001BC0005040EFA0CFC4CEA0404CD78282DE6D08C
:1001CC00482DE5D10261E3E704600B88FF2B25D9AC
:1001DC004468002303E0CD78482D1CD00133072B55
:1001EC001BD803F1080C012202FA0CF2B1F800C082
:1001FC0032EA0C05F2D14FEA830C0F2505FA0CF507
:10020C0024EA05040EFA0CFC4CEA0404CD78282DE3
:10021C00E1D14261DFE70261E0E7446030BD836811
:10022C00194201D001207047002070470AB10161CA
:10023C00704741617047000010B5002816DB1C4B5D
:10024C005B68C0F303421FFA80FE00F4401CBCF54F
:10025C00401F0ED010F4801F1DD04FF0030C0CFA71
:10026C0002F223EA020343F0706309E0104BDB69EE
:10027C00E7E723F070630E4C626822F070626260F4
:10028C0021B1420D12010EFA02F2134300280BDBCE
:10029C00074A536010BD420D12010EFA02F223EA16
:1002AC00020343F07063EBE7014AD361F2E700BF4E
:1002BC00000001400D4B1A6842F001021A605968A7
:1002CC000B4A0A405A601A6822F0847222F4803277
:1002DC001A601A6822F480221A605A6822F4FE020C
:1002EC005A604FF41F029A60704700BF0010024022
:1002FC000000FFF8014B1860704700BF000042423D
:10030C00034A536823F47C13084318435060704726
:10031C0000100240014B1866704700BF00004242BB
:10032C00034A536823F0030303435360704700BF31
:10033C0000100240024B586800F00C00704700BFE0
:10034C0000100240034A536823F0F0030343536048
:10035C00704700BF00100240034A536823F4E06367
:10036C0003435360704700BF00100240034A5368B8
:10037C0023F4605343EAC0035360704700100240FB
:10038C0010B4294B5B6803F00C03042B2BD0082B07
:10039C002CD013B1254B036001E0244B03602249A0
:1003AC004B68C3F30313224CE35CDAB20368D3400B
:1003BC0043604A68C2F30222A25CD2B223FA02F270
:1003CC0082604A68C2F3C222A25CD2B2D340C3603C
:1003DC004A68C2F3813217498A5CD2B2B3FBF2F39A
:1003EC00036110BC7047114B0360D8E70E4A536889
:1003FC005268C3F38343023312F4803F04D10E4A94
:10040C0002FB03F30360CAE7074A526812F4003F89
:10041C0004D0094A02FB03F30360C0E7034A02FB62
:10042C0003F30360BBE700BF0010024000127A0028
:10043C00040000200000002000093D0021B1054A05
:10044C009369184390617047024A936923EA00004C
:10045C0090617047001002404309012B0CD0022B15
:10046C000DD0094B5B6A00F01F0023FA00F010F06E
:10047C00010F07D001207047034B1B68F3E7024BB9
:10048C001B6AF0E700207047001002402DE9F04194
:10049C00038803F441520F88B1F802808E88CD880E
:1004AC000C89B1F80AE0B1F80CC0CB8947EA08070F
:1004BC003E4335432C434EEA040E4CEA0E0C43EA01
:1004CC000C0313430380838B9BB223F400639BB216
:1004DC0083830B8A0382BDE8F08129B103889BB228
:1004EC0043F040030380704703889BB223F0400322
:1004FC009BB203807047818170470389194201D0F8
:10050C00012070470020704730B587B004460D4677
:10051C00038A9BB2CA8823F4405313430382838912
:10052C009BB2898828896A8901430A4323F4B05312
:10053C0023F00C031343A381A38A9BB2AA8923F44F
:10054C0040731343A38201A8FFF71AFF1D4B9C4273
:10055C0024D0039BA28912F4004F21D103EB830317
:10056C0003EB83032A689200B3FBF2F3164AA2FB57
:10057C00031252091101642002FB1033A28912F4F8
:10058C00004F16D11B0132330F4AA2FB0323C3F3D6
:10059C0043130B439BB2238107B030BD049BD9E7B7
:1005AC0003EB830303EB83032A685200B3FBF2F3E0
:1005BC00DCE7DB003233044AA2FB0323C3F3421310
:1005CC000B43E7E7003801401F85EB5129B18389C4
:1005DC009BB243F400538381704783899BB223F40D
:1005EC0000539BB283817047C1F3421C01F01F0181
:1005FC00012303FA01F19C4508D0BCF1020F07D08E
:10060C0014303AB103681943016070470C30F8E7B5
:10061C001030F6E7036823EA010101607047C1F36B
:10062C000801818070478088C0F3080070470388F8
:10063C00194201D00120704700207047C94389B28C
:10064C0001807047C1F3421201F01F0C012303FA21
:10065C000CF3012A0FD0022A11D0828A92B21340D5
:10066C00090A012202FA01F1028892B20A4053B13E
:10067C005AB900207047828992B21340F0E7028A7F
:10068C0092B21340ECE70020704701207047090A32
:10069C0001238B409BB2DB439BB20380704700006D
:1006AC001F4B5B6803F00C03042B15D0082B17D0E1
:1006BC001BB11C4B1C4A1A6002E01A4B1A4A1A60F6
:1006CC00174B5B68C3F30313184AD35CDAB21549B2
:1006DC000B68D3400B607047124B134A1A60EFE75C
:1006EC000F4A53685268C3F38343023312F4803FBA
:1006FC0005D10F4A02FB03F30A4A1360E0E7084AEC
:10070C00526812F4003F05D0094A02FB03F3054A74
:10071C001360D5E7044A02FB03F3024A1360CFE7E8
:10072C00001002402400002000127A001400002067
:10073C0000093D0008B5FFF7BDFD0120FFF7DAFD0C
:10074C002120FFF789FE0028FAD01020FFF702FDC8
:10075C000220FFF7F5FC0020FFF7E2FD0020FFF779
:10076C00F1FD4FF48060FFF7F7FD0020FFF7FEFD71
:10077C004FF460110020FFF7C3FD0120FFF7CAFD05
:10078C003920FFF769FE0028FAD00220FFF7C8FDD8
:10079C00FFF7D0FD0828FBD1FFF782FF08BD000052
:1007AC002DE9F04182B001213420FFF747FE4FF4D0
:1007BC006043ADF8043048238DF8073001258DF8DF
:1007CC00065001A93B48FFF7D1FC0C23ADF80430CF
:1007DC0000248DF8074003268DF80660364F01A9DA
:1007EC003846FFF7C3FC4FF40063ADF804304FF00C
:1007FC0010088DF807808DF8065001A93846FFF7D0
:10080C00B5FC4FF48073ADF8043004238DF8073039
:10081C008DF806600DEB03013846FFF7A7FCADF829
:10082C0004608DF807808DF8066001A93846FFF743
:10083C009DFC29462846FFF701FE29464FF400404F
:10084C00FFF7FAFCADF804608DF807808DF80660B0
:10085C001A4E01A93046FFF789FC22460221304688
:10086C00FFF7E4FC224629463046FFF7DFFC1BE08D
:10087C00124D012202212846FFF7D8FC0122114615
:10088C002846FFF7D3FC012000F088FA0022022151
:10089C002846FFF7CBFC002201212846FFF7C6FCB7
:1008AC00012000F07BFA0134022CE1DD02B0BDE83E
:1008BC00F08100BF0010014000080140001401400D
:1008CC0030B587B0012141F20400FFF7B7FDA0233A
:1008DC00ADF8143018238DF8173003238DF816302B
:1008EC001B4C05A92046FFF741FC1025ADF8145010
:1008FC008DF8175005A92046FFF738FC0122294630
:10090C002046FFF793FC0023ADF800304FF48272C1
:10091C00ADF80220ADF80430ADF80630ADF8083073
:10092C004FF40072ADF80A202022ADF80C20ADF87F
:10093C000E300723ADF8103004F5205469462046DC
:10094C00FFF7A4FD01212046FFF7C7FD07B030BD1E
:10095C000008014010B5044602210548FFF7CDFD03
:10096C000028F9D021460248FFF7C5FD10BD00BF95
:10097C000030014038B504460D46002210210C48C9
:10098C00FFF754FC200AFFF7E5FFE0B2FFF7E2FFA8
:10099C002846FFF7DFFF80210648FFF7AEFD012850
:1009AC00F9D0012210210248FFF740FC38BD00BFEE
:1009BC00000801400030014008B5342140F24310DA
:1009CC00FFF7D8FF012000F0E9F9142140F24310A1
:1009DC00FFF7D0FF012000F0E1F908BD08B51621A2
:1009EC0040F24310FFF7C6FF012000F0D7F91421A5
:1009FC0040F24310FFF7BEFF08BD000010B50446DF
:100A0C00032815D8DFE800F00217455AFF214FF4F0
:100A1C00A270FFF7AFFF012140F24510FFF7AAFFCC
:100A2C000D214FF4A070FFF7A5FF012000F0B6F9DF
:100A3C00294B1C7010BD00214FF4A070FFF79AFFDA
:100A4C00012000F0ABF9FFF7C9FF012000F0A6F977
:100A5C00142140F24310FFF78DFF002140F23910B2
:100A6C00FFF788FF00214FF4A270FFF783FF0021EE
:100A7C0040F24510FFF77EFFFFF79EFFFF214FF47A
:100A8C00A270FFF777FF012140F24510FFF772FFCC
:100A9C00CEE7FF214FF4A270FFF76CFF012140F26B
:100AAC004510FFF767FF132140F24310FFF762FF79
:100ABC00022140F23910FFF75DFFB9E7FFF78EFF17
:100ACC00012000F06BF9032140F23910FFF752FFBF
:100ADC00012000F063F9ABE72800002008B50146BF
:100AEC004FF49F70FFF746FF08BD000038B5054670
:100AFC00002403E0012000F051F90334B4F5BC7F6D
:100B0C003CD2002210211F48FFF790FB285DFFF715
:100B1C0021FF631CE85CFFF71DFFA31CE85CFFF7DB
:100B2C0019FF80211848FFF7E8FC0128F9D00122B1
:100B3C0010211448FFF77AFB002CDBD0B4F5A57F0D
:100B4C00DBD1002210210F48FFF770FB0120FFF7CB
:100B5C0001FF7320FFF7FEFE1020FFF7FBFE802144
:100B6C000948FFF7CAFC0128F9D0012210210548D9
:100B7C00FFF75CFB012000F011F9BEE7FFF72EFF39
:100B8C0038BD00BF000801400030014010B50446DC
:100B9C0080210548FFF74BFD0028F9D0A1B202488F
:100BAC00FFF73DFD204610BD0038014070B50C46E6
:100BBC001646002504E014F8010BFFF7E7FF01359A
:100BCC00B542F8DB304670BD10B586B0012104206B
:100BDC00FFF734FC01214FF48040FFF72FFC4FF45A
:100BEC000073ADF8143018238DF8173003238DF8EB
:100BFC0016301A4C05A92046FFF7B8FA4FF480635B
:100C0C00ADF8143004238DF8173005A92046FFF7F2
:100C1C00ADFA4FF4E13301930023ADF80830ADF891
:100C2C000A30ADF80C30ADF810300C23ADF80E30A6
:100C3C0004F5405401A92046FFF766FC012240F25E
:100C4C0025512046FFF7D0FC054B20225A6001218C
:100C5C002046FFF7BBFC06B010BD00BF00080140EA
:100C6C0000E100E010B540F225513248FFF7EAFCF4
:100C7C0030B908212F48FFF7DAFC012850D010BDFD
:100C8C002C4C40F225512046FFF701FD2046FFF782
:100C9C00CAFCC0B2284B1B787BB9552803D0274B14
:100CAC0000221A70E5E7264A1378591C1170254A60
:100CBC00D054214B01221A70F1E7012B17D0204997
:100CCC000A78531CDBB20B701E498854082BD0D108
:100CDC008B790D2B02D1CB790A2B1AD01A4800F044
:100CEC00B1FA0023164A1370134A1370C1E75D283A
:100CFC0005D00023124A13700F4A1370B9E7104A3B
:100D0C001378591C11700F4AD0540B4B02221A70D5
:100D1C00AFE70A4B01221A700C4B00221A70E0E765
:100D2C00044C08212046FFF789FC2046FFF77BFC8A
:100D3C00A5E700BF0038014028020020290200204E
:100D4C002B0200202C020020502100082A02002037
:100D5C00034B1B681BB1024A1368013B13607047BD
:100D6C00340200200A4B1B680A4AA2FB03239B098E
:100D7C00013BB3F1807F0AD24FF0E0225361064B66
:100D8C00F02183F82310002393610723136170472C
:100D9C0024000020D34D621000ED00E028B1034A7E
:100DAC001060024B1B68002BFBD1704734020020F3
:100DBC0008B5FFF7CDFF08BD70B50D46C27802F03F
:100DCC000F0112094B1E032B7CD8DFE803F0022B1A
:100DDC00506B437913F0010F12D042B90122114626
:100DEC003A48FFF723FA3A4800F02CFA67E0012260
:100DFC0002213648FFF71AFA364800F023FA5EE073
:100E0C003AB901213148FFF711FA334800F01AFAC8
:100E1C0055E0002202212D48FFF708FA2F4800F078
:100E2C0011FA4CE08AB9294C012211462046FFF7F1
:100E3C00FDF90120FFF7B2FF002201212046FFF748
:100E4C00F5F9274800F0FEF939E0204C0122022187
:100E5C002046FFF7EBF90120FFF7A0FF002202214B
:100E6C002046FFF7E3F91F4800F0ECF927E072B1D8
:100E7C00012A24D1447904F003042046FFF72EFE06
:100E8C000122A2402146184800F056F917E0447997
:100E9C0004F003042046FFF7B1FD2146134800F08F
:100EAC004BF90CE0847842EA04144679314620462A
:100EBC00FFF760FD224631460D4800F03DF9012355
:100ECC002B7070BD0B4800F037F9F8E700140140A7
:100EDC00582100086C2100087C2100089021000892
:100EEC00A4210008C0210008F8210008DC2100081A
:100EFC002C2200084C22000810B5FFF71BFCFFF752
:100F0C0031FFFFF7DDFCFFF74BFCFFF75DFE4F48B1
:100F1C00FFF7ECFD00244FF400514D48FFF77FF92B
:100F2C00A0B14FF400414A48FFF779F9F0B1002421
:100F3C00484B1B78002BEED0474B1B78002BEAD18B
:100F4C0045494648FFF738FFE5E702244FF40051C6
:100F5C003F48FFF764F9C0B94FF400413C48FFF734
:100F6C005EF90028F1D10124F0E704244FF400418C
:100F7C003748FFF754F940B94FF400513448FFF7A4
:100F8C004EF90028F1D10324F0E7022C1AD0042CDE
:100F9C0045D0012CCCD102213148FFF740F940B9A2
:100FAC00012202212E48FFF741F92E4800F04AF9A0
:100FBC00BEE7002202212A48FFF738F92A4800F040
:100FCC0041F9B5E7294B1B781BB9284B01221A7044
:100FDC00AEE7274B1B78032B0AD0022BA8D101209C
:100FEC00FFF77CFD02220121224800F0A5F89FE7C3
:100FFC0001211B48FFF713F940B90122114618488B
:10100C00FFF714F91C4800F01DF991E700220121AB
:10101C001348FFF70BF9194800F014F988E7144B43
:10102C001B78032B09D0022B82D10320FFF7E6FC9F
:10103C000321134800F080F87AE70220FFF7DEFC6A
:10104C0002210F4800F078F872E700BF2C00002056
:10105C0000100140290200202A0200202C0200204E
:10106C00001401406C210008902100083802002077
:10107C0028000020F8210008582100087C210008D5
:10108C00DC210008002103E00B4B5B58435004317A
:10109C000A480B4B42189A42F6D30A4A02E0002344
:1010AC0042F8043B084B9A42F9D3FFF743FB00F09C
:1010BC0017F8FFF721FF70472C23000800000020D1
:1010CC000C0200200C0200204C020020FEE77047AE
:1010DC00FEE7FEE7FEE7FEE770477047704700004B
:1010EC0070B500260C4D0D4C641BA410A64209D102
:1010FC0001F006F900260A4D0A4C641BA410A64206
:10110C0005D170BD55F8043B98470136EEE755F80C
:10111C00043B98470136F2E72423000824230008F7
:10112C00242300082823000803460244934200D1DC
:10113C00704703F8011BF9E70FB40A4B13B51C6891
:10114C0024B1A36913B9204600F05AFA05AB204626
:10115C00049AA168019300F023FC02B0BDE8104092
:10116C0004B07047A801002070B50E46054618B1B2
:10117C0083690BB900F044FAAB69AC6813B9284623
:10118C0000F03EFA2C4B9C4220D16C68636EDB075E
:10119C0005D4A389980502D4A06D00F0CFFAA389D9
:1011AC0019071DD52369DBB1013EA36816F8011F91
:1011BC00013BA36039BB002B38DA22460A212846B2
:1011CC0000F048F8013011D00A2511E01B4B9C426D
:1011DC0001D1AC68DAE71A4B9C4208BFEC68D5E742
:1011EC002146284600F088F80028DDD04FF0FF3566
:1011FC00636EDA0705D4A3899B0502D4A06D00F0B9
:10120C009EFA284670BD002B04DAA2699A4206DCCD
:10121C000A2904D023685A1C22601970C5E722469B
:10122C00284600F017F80130BFD1DFE70A25236804
:10123C005A1C22601D70DBE798220008B8220008B7
:10124C0078220008024B01461868FFF78DBF00BFDB
:10125C00A8010020F8B50E461446054618B183695E
:10126C000BB900F0CDF9214B9C422BD16C68A369D2
:10127C00A360A3891A072FD523696BB32369206850
:10128C00F6B2C01A63693746834204DC214628460D
:10129C0000F022F930BBA3680130013BA360236846
:1012AC005A1C22601E706369834204D0A389DB0739
:1012BC0006D50A2E04D12146284600F00DF988B92E
:1012CC003846F8BD0A4B9C4201D1AC68CFE7094BBC
:1012DC009C4208BFEC68CAE72146284600F00CF88F
:1012EC000028CBD04FF0FF37EAE700BF9822000868
:1012FC00B822000878220008324B70B51D680646EB
:10130C000C4625B1AB6913B9284600F079F92E4B80
:10131C009C420FD16C68A389B4F90C2019072CD40A
:10132C00DD0611D40923336042F040034FF0FF3047
:10133C00A3813EE0254B9C4201D1AC68EBE7244BEA
:10134C009C4208BFEC68E6E7580712D5616B41B1C7
:10135C0004F14403994202D0304600F057FA0023BE
:10136C006363A38923F02403A381002363602369AF
:10137C002360A38943F00803A38123694BB9A38994
:10138C0003F42073B3F5007F03D02146304600F000
:10139C00FDF9A089B4F90C2010F001030AD0002348
:1013AC00A36063695B42A361236943B910F08000B9
:1013BC00BAD170BD810758BF6369A360F4E7002000
:1013CC00F7E700BFA801002098220008B822000807
:1013DC00782200088A89F8B5054610070C4657D4C0
:1013EC004B68002B04DC0B6C002B01DC0020F8BDDF
:1013FC00E66A002EFAD0002312F480522F682B607C
:10140C0032D0606DA3895A0705D56368C01A636B27
:10141C000BB1236CC01A00230246E66A2846216AE7
:10142C00B047431CA38906D129681D292CD8294A09
:10143C00CA40D60728D5002262602269D9042260EE
:10144C0004D5421C01D12B6803B96065616B2F6018
:10145C000029CBD004F14403994202D0284600F075
:10146C00D5F900206063C2E7216A01232846B04702
:10147C00411CC7D12B68002BC4D01D2B01D0162BBF
:10148C0001D12F60B2E7A38943F04003A381AEE7FB
:10149C000F69002FAAD0930718BF00230E6808BF4E
:1014AC004B69F61B0F608B60002E9FDD33463A466E
:1014BC002846216AD4F828C0E047002806DCA38916
:1014CC004FF0FF3043F04003A38190E70744361AF6
:1014DC00EAE700BF0100402038B50B6905460C4611
:1014EC0013B90025284638BD18B183690BB900F033
:1014FC0087F8144B9C421BD16C68B4F90C30002B50
:10150C00EFD0626ED00704D4990502D4A06D00F020
:10151C0015F928462146FFF75DFF636E0546DA078D
:10152C00E0D4A3899B05DDD4A06D00F008F9D9E7C0
:10153C00054B9C4201D1AC68DFE7044B9C4208BFD1
:10154C00EC68DAE798220008B82200087822000834
:10155C00002310B50446C0E90033C0E904338360AE
:10156C0081814366C2818361194608225C30FFF792
:10157C00DBFD054B24626362044BA362044BE36204
:10158C00044B236310BD00BF591F00087B1F0008CC
:10159C00B31F0008D71F0008014900F0AFB800BF07
:1015AC00E5140008682270B54D1E55430E4605F132
:1015BC00740100F073F9044640B10021C0E9001633
:1015CC000C30A06005F16802FFF7AEFD204670BD3F
:1015DC00014800F0B3B800BF3A020020014800F007
:1015EC00AEB800BF3A020020014800F0A7B800BF17
:1015FC003B020020014800F0A2B800BF3B020020D3
:10160C0010B50446FFF7F0FFA3691BB1BDE810400D
:10161C00FFF7F0BFC4E912332365134B134A1B6861
:10162C00A262A34208BF0123204608BFA36100F0B9
:10163C001FF86060204600F01BF8A060204600F008
:10164C0017F800220421E0606068FFF781FF012297
:10165C000921A068FFF77CFF02221221E068FFF746
:10166C0077FF0123A361D1E774220008A5150008B8
:10167C00F8B50746FFF7ACFF1E4B1E68B36913B9EC
:10168C003046FFF7BDFF4836D6E90134013B03D5A0
:10169C0033680BB33668F7E7B4F90C50D5B9164B71
:1016AC0004F15800E360656600F047F8FFF796FF19
:1016BC0008222946C4E90155C4E904552560A561F1
:1016CC0004F15C00FFF730FDC4E90D55C4E9125577
:1016DC002046F8BD6834D9E704213846FFF762FF8D
:1016EC00044630600028D5D1FFF778FF0C233B600F
:1016FC00EEE700BF742200080100FFFF2DE9F8435C
:10170C0006468846002700F14804D4E90195B9F152
:10171C00010905D52468002CF7D13846BDE8F883BB
:10172C00AB89012B07D9B5F90E30013303D029460B
:10173C003046C04707436835E9E770477047704744
:10174C0070B50E46B1F90E10144600291D4696B020
:10175C0008DA0022B6F90C302A601A0610D44FF4BD
:10176C0080630EE06A4600F057FC0028F1DB019A1A
:10177C0002F47042A2F500535A425A412A60EEE735
:10178C0040230020236016B070BD00008B8973B518
:10179C009D0706460C4607D504F1470323602361D9
:1017AC000123636102B070BD6A4601ABFFF7C8FF4D
:1017BC0000990546304600F071F848B9B4F90C3080
:1017CC009A05EFD423F0030343F00203A381E3E76C
:1017DC000D4BB362A389206043F08003A381009B6F
:1017EC0020616361019B5BB13046B4F90E1000F0CF
:1017FC0025FC28B1A38923F0030343F00103A38143
:10180C00A0890543A581CDE7A515000838B5054687
:10181C00002940D051F8043C0C1F002BB8BFE41831
:10182C0000F03CFC1C4A136833B963601460284612
:10183C00BDE8384000F038BCA34208D92068211814
:10184C008B4201BF19685B6809182160EDE71A46E5
:10185C005B680BB1A342FAD911685018A0420BD1A6
:10186C0020680144501883421160E0D118685B680D
:10187C00014411605360DAE702D90C232B60D6E7E0
:10188C00206821188B4201BF19685B680918216018
:10189C0063605460CBE738BD3C020020F8B5CD1C2A
:1018AC0025F0030508350C2D38BF0C25002D0646F8
:1018BC0001DBA94203D90C2333600020F8BD00F0F2
:1018CC00EDFB21490A6814469CB9204F3B6823B9AB
:1018DC002146304600F02AFB38602946304600F09D
:1018EC0025FB431C23D10C233046336000F0DCFB7A
:1018FC00E3E723685B1B17D40B2B03D923601C4431
:10190C00256004E06368A2420CBF0B605360304654
:10191C0000F0CAFB04F10B00231D20F00700C21AD3
:10192C00CCD01B1AA350C9E722466468CCE7C41C70
:10193C0024F00304A042E3D0211A304600F0F6FA5A
:10194C000130DDD1CFE700BF3C0200204002002077
:10195C00936810B4013B002B936007DA9469A3429F
:10196C0001DB0A2902D110BCFFF774BC1368581CA8
:10197C0010601970084610BC7047F8B506460F4643
:10198C001446D518AC4201D1002007E03A46304647
:10199C0014F8011BFFF7DCFF431CF3D1F8BD00006A
:1019AC002DE9F04F0D461446984606469DB018B1E9
:1019BC0083690BB9FFF724FE894B9D421BD17568D7
:1019CC006B6ED90705D4AB899A0502D4A86DFFF7C5
:1019DC00B5FEAB891B0701D52B69EBB929463046FF
:1019EC00FFF78AFCC0B16B6EDC070ED54FF0FF30F1
:1019FC001DB0BDE8F08F7B4B9D4201D1B568DFE790
:101A0C00794B9D4208BFF568DAE7AB899805EDD4B0
:101A1C00A86DFFF794FEE9E70023099320238DF8C6
:101A2C00293030234FF00109CDF80C80DFF8BC8150
:101A3C008DF82A3023469A4613F8012B0AB1252A31
:101A4C00F9D1BAEB040B0BD05B4622462946304643
:101A5C00FFF793FF013000F0AA80099A5A440992CB
:101A6C009AF80030002B00F0A28000234FF0FF32D8
:101A7C00CDE905230AF1010A049307938DF853303D
:101A8C001A935446052214F8011B584800F0F8FA32
:101A9C00049AD8B9D10644BF20238DF853301307CC
:101AAC0044BF2B238DF853309AF800302A2B15D0D5
:101ABC00544600204FF00A0C079A214611F8013BBE
:101ACC00303B092B4ED9B0B1079214E0A0EB0803C0
:101ADC0009FA03F31343A2460493D2E7039B191D9F
:101AEC001B680391002BBBBF5B4242F002020793C1
:101AFC000793B8BF049223782E2B0CD163782A2B32
:101B0C0035D1039B02341A1D1B680392002BB8BFFE
:101B1C004FF0FF330593DFF8D8A00322504621780D
:101B2C0000F0AEFA40B14023A0EB0A0003FA00F03B
:101B3C00049B01340343049314F8011B06222D4823
:101B4C008DF8281000F09CFA00283FD02A4B1BBBC4
:101B5C00039B073323F0070308330393099B3B4490
:101B6C00099367E70C4601200CFB0232A5E7002322
:101B7C004FF00A0C194601340593204610F8012B3E
:101B8C00303A092A03D9002BC5D00591C3E7044686
:101B9C0001230CFB0121F0E703AB00932A463046EE
:101BAC00164B04A9AFF300800746781CD6D16B6E98
:101BBC00D90705D4AB899A0502D4A86DFFF7BFFDF0
:101BCC00AB895B063FF512AF099811E703AB0093A5
:101BDC002A463046094B04A900F082F8E4E700BF1E
:101BEC0098220008B822000878220008D8220008A1
:101BFC00DE220008E222000800000000871900081D
:101C0C002DE9F047164699468A680B6907469342B8
:101C1C00B8BF1346336091F843200C46DDF82080A2
:101C2C000AB1013333602368990642BF336802332B
:101C3C003360256815F0060506D104F1190AE3682E
:101C4C0032689B1AAB4228DC94F84320131E22689E
:101C5C0018BF012392062DD44946384604F143029D
:101C6C00C047013020D02368E56803F00603042B3D
:101C7C0018BF002532684FF00006A36808BFAD1AE4
:101C8C00226908BF25EAE5759342C4BF9B1AED187B
:101C9C001A34B5421AD1002008E0012352464946B5
:101CAC003846C047013003D14FF0FF30BDE8F08714
:101CBC000135C4E73020E11881F843005A1C94F830
:101CCC0045102244023382F84310C5E70123224613
:101CDC0049463846C0470130E6D00136D9E7000006
:101CEC002DE9FF470F7E9146782F80460C469A4689
:101CFC000C9D01F1430207D8622F0AD8002F00F087
:101D0C00D980582F00F0A48004F1420584F8427069
:101D1C003AE0A7F16303152BF6D801A151F823F093
:101D2C00851D0008991D0008151D0008151D0008CB
:101D3C00151D0008151D0008991D0008151D00082B
:101D4C00151D0008151D0008151D0008A71E00080C
:101D5C00C91D0008891E0008151D0008151D000866
:101D6C00C91E0008151D0008C91D0008151D000816
:101D7C00151D0008911E00082B681A1D1B682A608F
:101D8C0004F1420584F842300123A4E0206829685C
:101D9C00060601F104030AD50E682B60002E03DA47
:101DAC002D23764284F843300A235E4819E00E68EE
:101DBC0010F0400F2B6018BF36B2EFE72B6820688D
:101DCC00191D2960010601D51E6802E04606FBD5E7
:101DDC001E886F2F0CBF08230A235248002184F859
:101DEC0043106568002DA8BF2168A560A4BF21F031
:101DFC00040121600EB9002D4DD01546B6FBF3F150
:101E0C0003FB1167C75D05F8017D3746BB420E46E3
:101E1C00F4D9082B0BD12368DE0708D52369616838
:101E2C009942DEBF302305F8013C05F1FF35521B0A
:101E3C0022614B4621464046CDF800A003AAFFF78D
:101E4C00DFFE01304CD14FF0FF3004B0BDE8F0871D
:101E5C00344881F845702968236851F8046B29606F
:101E6C001D0614D5DF0744BF43F0200323601EB9C1
:101E7C00236823F0200323601023AFE7236843F08B
:101E8C00200323607823284884F84530E3E759067B
:101E9C0048BFB6B2E6E71546BBE72B682668181DA7
:101EAC006169286035061B6801D5196002E070066F
:101EBC00FBD51980002315462361BAE72B68002156
:101ECC001A1D2A601D686268284600F0D9F808B10E
:101EDC00401B606063682361002384F84330A8E7EB
:101EEC002A46494640462369D0470130ABD0236887
:101EFC009B0713D4E068039B9842B8BF1846A4E72D
:101F0C000123324649464046D04701309BD001352B
:101F1C00E36803995B1AAB42F2DCEBE7002504F1B2
:101F2C001906F5E7E9220008FA22000838B5002363
:101F3C00054D044608462B6000F0F6F8431C02D110
:101F4C002B6803B1236038BD4402002010B50C4649
:101F5C00B1F90E1000F0AEF80028ABBF636DA38989
:101F6C001B1823F48053ACBF6365A38110BD2DE90E
:101F7C00F0411F468B890546DB050C46164605D5F8
:101F8C0002230022B1F90E1000F068F8A389324642
:101F9C0023F48053A38128463B46B4F90E10BDE8C8
:101FAC00F04100F017B810B50C46B1F90E1000F066
:101FBC0055F8431CA38915BF606523F4805343F483
:101FCC008053A38118BFA38110BDB1F90E1000F08E
:101FDC0013B8000038B50446084611460022054DDA
:101FEC002A601A46FEF7E2FD431C02D12B6803B1AE
:101FFC00236038BD4402002038B50023054D04464B
:10200C0008462B6000F068F8431C02D12B6803B122
:10201C00236038BD4402002038B50023064D044629
:10202C00084611462B6000F05FF8431C02D12B6868
:10203C0003B1236038BD00BF4402002038B5002333
:10204C00054D044608462B6000F056F8431C02D19F
:10205C002B6803B1236038BD4402002038B5044618
:10206C00084611460022054D2A601A4600F04CF82D
:10207C00431C02D12B6803B1236038BD44020020FD
:10208C00034610B5C9B202449342184601D1002050
:10209C0003E0047801338C42F6D110BD0148FFF700
:1020AC004DBB00BF390200200148FFF748BB00BF01
:1020BC003902002038B50446084611460022054D69
:1020CC002A601A4600F028F8431C02D12B6803B191
:1020DC00236038BD440200205822024B4FF0FF30E1
:1020EC001A607047440200205822024B4FF0FF3018
:1020FC001A607047440200205822024B00201A60DC
:10210C00704700BF440200205822024B4FF0FF30B2
:10211C001A607047440200205822024B4FF0FF30E7
:10212C001A60704744020020044A05491368002BCA
:10213C0008BF0B4618441060184670474802002030
:10214C004C0200204572726F72210D007472696727
:10215C005F6F7574206973204F4E2E0D00000000C8
:10216C00747269675F696E206973204F4E2E0D0083
:10217C00747269675F6F7574206973204F46462EC1
:10218C000D000000747269675F696E206973204FDF
:10219C0046462E0D000000004120747269675F6F87
:1021AC0075742070756C73652069732073656E741B
:1021BC002E0D00004120747269675F696E20707586
:1021CC006C73652069732073656E742E0D000000AE
:1021DC00535953524546204D5558207365742074FD
:1021EC006F3A2025642E0D0A0000000053595352FB
:1021FC0045462050756C73652073656E742C2043B6
:10220C004E543A202564202861637475616C2070EB
:10221C00756C7365733A202564290D0A0000000063
:10222C0057726974652030782530325820746F20CD
:10223C007265673078253033582E0D0A0000000087
:10224C006C6D6B5F636C6B5F67656E3A20556E6B84
:10225C006E6F776E20636F6D6D616E643A20253002
:10226C0032580D0A00000000AC01002000000000F4
:10227C000000000000000000000000000000000052
:10228C000000000000000000000000000000000042
:10229C000000000000000000000000000000000032
:1022AC000000000000000000000000000000000022
:1022BC000000000000000000000000000000000012
:1022CC00000000000000000000000000232D302B57
:1022DC002000686C4C00656667454647003031321B
:1022EC003334353637383941424344454600303172
:1022FC0032333435363738396162636465660000D1
:10230C00F8B500BFF8BC08BC9E467047F8B500BFD6
:08231C00F8BC08BC9E467047A6
:04232400310100087B
:042328000D0100089B
:10232C000204060800000000010203040102030479
:10233C000607080900000000000000000102030469
:10234C000607080900A24A040300000000009000E0
:10235C0000100002000003060004D1000563000613
:10236C0070000C51000D0401000601010A0102105D
:10237C000103440104270105200106010107450161
:10238C00080B01090A010A90010B44010C21010DF3
:10239C0000010E01010F0001100B01110A01128046
:1023AC000113500114200115000116010117000141
:1023BC00180B01190A011A80011B50011C20011D68
:1023CC0000011E01011F0001200801210A012290B9
:1023DC0001235001241001250001260101270001D1
:1023EC00280801290A012A90012B50012C10012DDB
:1023FC0000012E01012F0001300601310A013210BB
:10240C000133440134270135000136010137450100
:10241C003825013903013A01013B80013C00013DA3
:10242C0008013E01013F050140000141000142004D
:10243C000143130144FF01450001461901470E01F8
:10244C004802014942014A03014B06014C00014D6F
:10245C0000014EC0014F7F01500101510201520099
:10246C0001530001547D01550001567801570001BC
:10247C005896015906015A00015BD4015C20015D9C
:10248C0000015E1E015F0B0160000161010162A48D
:10249C00016300016400016505016600016700012C
:1024AC006950016A20016B00016E130173100177F2
:1024BC0000018200018300018480018500018800F5
:1024CC000168050555000000AC010020000000006B
:1024DC0098220008B82200087822000800000000AA
:1024EC0000000000000000000000000000000000E0
:1024FC0000000000000000000000000000000000D0
:10250C0000000000000000000000000000000000BF
:10251C0000000000000000000000000000000000AF
:0C252C00000000000000000000000000A3
:04000005080010914E
:00000001FF
