:020000040800F2
:1000000000500020251100086F1100087111000830
:100010007311000875110008771100080000000036
:10002000000000000000000000000000791100083E
:100030007B110008000000007D110008D10E0008AF
:100040006D1100086D1100086D1100086D11000898
:100050006D1100086D1100086D1100086D11000888
:100060006D1100086D1100086D1100086D11000878
:100070006D1100086D1100086D1100086D11000868
:100080006D1100086D1100086D1100086D11000858
:100090006D1100086D1100086D1100086D11000848
:1000A0006D1100086D1100086D1100086D11000838
:1000B0006D1100086D1100086D1100086D11000828
:1000C0006D1100086D1100086D1100086D11000818
:1000D0006D110008850D00086D1100086D110008F4
:1000E0006D1100086D1100086D110008000000007E
:1000F0000000000000000000000000000000000000
:0C01000000000000000000005FF808F1A3
:10010C000348044B834202D0034B03B1184770479A
:10011C000002002000020020000000000548064BF1
:10012C001B1AD90F01EBA301491002D0034B03B1E9
:10013C001847704700020020000200200000000059
:10014C0010B5064C237843B9FFF7DAFF044B13B113
:10015C000448AFF300800123237010BD000200207F
:10016C00000000000C01000808B5054B1BB1054947
:10017C000548AFF30080BDE80840FFF7CFBF00BFD4
:10018C0000000000040200200C010008034A136860
:10019C0003F0380303431360704700BF0020024094
:1001AC00044B196821F0100119601A6802431A6097
:1001BC00704700BF0020024030B5CB7803F00F022F
:1001CC00964613F0100F03D091F802E04EEA020E9F
:1001DC000B7803B30468002301E042610133072B61
:1001EC0018D801229A40B1F800C032EA0C05F5D1BA
:1001FC004FEA830C0F2505FA0CF524EA05040EFAD8
:10020C000CFC4CEA0404CD78282DE6D0482DE5D121
:10021C000261E3E704600B88FF2B25D944680023B7
:10022C0003E0CD78482D1CD00133072B1BD803F1EC
:10023C00080C012202FA0CF2B1F800C032EA0C05EB
:10024C00F2D14FEA830C0F2505FA0CF524EA0504CC
:10025C000EFA0CFC4CEA0404CD78282DE1D1426155
:10026C00DFE70261E0E7446030BD8368194201D0EA
:10027C0001207047002070470AB10161704741614D
:10028C007047000010B5002816DB1C4B5B68C0F3F0
:10029C0003421FFA80FE00F4401CBCF5401F0ED038
:1002AC0010F4801F1DD04FF0030C0CFA02F223EA5D
:1002BC00020343F0706309E0104BDB69E7E723F0BE
:1002CC0070630E4C626822F07062626021B1420D64
:1002DC0012010EFA02F2134300280BDB074A53609B
:1002EC0010BD420D12010EFA02F223EA020343F092
:1002FC007063EBE7014AD361F2E700BF00000140F5
:10030C000D4B1A6842F001021A6059680B4A0A40F8
:10031C005A601A6822F0847222F480321A601A68C9
:10032C0022F480221A605A6822F4FE025A604FF4BA
:10033C001F029A60704700BF001002400000FFF8D7
:10034C00014B1860704700BF00004242034A5368DB
:10035C0023F47C130843184350607047001002408C
:10036C00014B1866704700BF00004242034A5368B5
:10037C0023F0030303435360704700BF0010024097
:10038C00024B586800F00C00704700BF0010024090
:10039C00034A536823F0F00303435360704700BFD4
:1003AC0000100240034A536823F4E0630343536094
:1003BC00704700BF00100240034A536823F4605397
:1003CC0043EAC003536070470010024010B4294B3D
:1003DC005B6803F00C03042B2BD0082B2CD013B12F
:1003EC00254B036001E0244B036022494B68C3F3A7
:1003FC000313224CE35CDAB20368D34043604A68CF
:10040C00C2F30222A25CD2B223FA02F282604A68E0
:10041C00C2F3C222A25CD2B2D340C3604A68C2F318
:10042C00813217498A5CD2B2B3FBF2F3036110BC80
:10043C007047114B0360D8E70E4A53685268C3F3F8
:10044C008343023312F4803F04D10E4A02FB03F3C0
:10045C000360CAE7074A526812F4003F04D0094A05
:10046C0002FB03F30360C0E7034A02FB03F30360E0
:10047C00BBE700BF0010024000127A00040000200D
:10048C000000002000093D0021B1054A9369184382
:10049C0090617047024A936923EA000090617047AB
:1004AC00001002404309012B0CD0022B0DD0094B3C
:1004BC005B6A00F01F0023FA00F010F0010F07D068
:1004CC0001207047034B1B68F3E7024B1B6AF0E7F4
:1004DC0000207047001002402DE9F041038803F41E
:1004EC0041520F88B1F802808E88CD880C89B1F802
:1004FC000AE0B1F80CC0CB8947EA08073E43354304
:10050C002C434EEA040E4CEA0E0C43EA0C03134344
:10051C000380838B9BB223F400639BB283830B8A8F
:10052C000382BDE8F08129B103889BB243F04003FC
:10053C000380704703889BB223F040039BB2038077
:10054C007047818170470389194201D0012070479F
:10055C000020704730B587B004460D46038A9BB225
:10056C00CA8823F440531343038283899BB289883E
:10057C0028896A8901430A4323F4B05323F00C03FE
:10058C001343A381A38A9BB2AA8923F44073134318
:10059C00A38201A8FFF71AFF1D4B9C4224D0039B9A
:1005AC00A28912F4004F21D103EB830303EB8303E5
:1005BC002A689200B3FBF2F3164AA2FB031252090B
:1005CC001101642002FB1033A28912F4004F16D1E2
:1005DC001B0132330F4AA2FB0323C3F343130B4318
:1005EC009BB2238107B030BD049BD9E703EB830397
:1005FC0003EB83032A685200B3FBF2F3DCE7DB0066
:10060C003233044AA2FB0323C3F342130B43E7E741
:10061C00003801401F85EB5129B183899BB243F40B
:10062C0000538381704783899BB223F400539BB2A0
:10063C0083817047C1F3421C01F01F01012303FAAF
:10064C0001F19C4508D0BCF1020F07D014303AB12F
:10065C0003681943016070470C30F8E71030F6E777
:10066C00036823EA010101607047C1F3080181802E
:10067C0070478088C0F3080070470388194201D086
:10068C000120704700207047C94389B20180704730
:10069C00C1F3421201F01F0C012303FA0CF3012ADF
:1006AC000FD0022A11D0828A92B21340090A012279
:1006BC0002FA01F1028892B20A4053B15AB90020F1
:1006CC007047828992B21340F0E7028A92B21340CB
:1006DC00ECE70020704701207047090A01238B408A
:1006EC009BB2DB439BB20380704700001F4B5B68DF
:1006FC0003F00C03042B15D0082B17D01BB11C4B8B
:10070C001C4A1A6002E01A4B1A4A1A60174B5B68B3
:10071C00C3F30313184AD35CDAB215490B68D34000
:10072C000B607047124B134A1A60EFE70F4A53687D
:10073C005268C3F38343023312F4803F05D10F4A4E
:10074C0002FB03F30A4A1360E0E7084A526812F40A
:10075C00003F05D0094A02FB03F3054A1360D5E7B5
:10076C00044A02FB03F3024A1360CFE70010024075
:10077C002400002000127A001400002000093D0023
:10078C0008B5FFF7BDFD0120FFF7DAFD2120FFF7CB
:10079C0089FE0028FAD01020FFF702FD0220FFF797
:1007AC00F5FC0020FFF7E2FD0020FFF7F1FD4FF410
:1007BC008060FFF7F7FD0020FFF7FEFD4FF460119E
:1007CC000020FFF7C3FD0120FFF7CAFD3920FFF71A
:1007DC0069FE0028FAD00220FFF7C8FDFFF7D0FD14
:1007EC000828FBD1FFF782FF08BD00002DE9F0437C
:1007FC0083B001213420FFF747FE4FF46043ADF87E
:10080C00043048238DF8073001258DF8065001AED1
:10081C0031463B48FFF7D0FC0C23ADF804300024E4
:10082C008DF8074003278DF80670DFF8D880314625
:10083C004046FFF7C1FC4FF40063ADF804304FF0B5
:10084C0010098DF807908DF8065031464046FFF799
:10085C00B3FC4FF48073ADF8043004238DF80730EB
:10086C008DF8067031464046FFF7A6FCADF80470D3
:10087C008DF807908DF8067031464046FFF79CFCCA
:10088C0029462846FFF700FE29464FF40040FFF7A3
:10089C00F9FCADF804708DF807908DF806701A4FBE
:1008AC0031463846FFF788FC224602213846FFF7CE
:1008BC00E3FC224629463846FFF7DEFC1BE0124DCE
:1008CC00012202212846FFF7D7FC012211462846B7
:1008DC00FFF7D2FC012000F0EBFA0022022128469F
:1008EC00FFF7CAFC002201212846FFF7C5FC0120B6
:1008FC0000F0DEFA0134022CE1DD03B0BDE8F08338
:10090C0000100140000801400014014070B586B091
:10091C00012141F20400FFF7B7FDA023ADF814301C
:10092C0018238DF8173003238DF8163005AE1C4CA8
:10093C0031462046FFF740FC1025ADF814508DF8D9
:10094C00175031462046FFF737FC01222946204636
:10095C00FFF792FC0023ADF800304FF48272ADF833
:10096C000220ADF80430ADF80630ADF808304FF485
:10097C000072ADF80A202022ADF80C20ADF80E3034
:10098C000723ADF8103004F5205469462046FFF7D4
:10099C00A3FD01212046FFF7C6FD06B070BD00BFC8
:1009AC000008014010B5044602210548FFF7CBFDB5
:1009BC000028F9D021460248FFF7C3FD10BD00BF47
:1009CC000030014038B504460D46002210210C4879
:1009DC00FFF752FC200AFFF7E5FFE0B2FFF7E2FF5A
:1009EC002846FFF7DFFF80210648FFF7ACFD012802
:1009FC00F9D0012210210248FFF73EFC38BD00BFA0
:100A0C00000801400030014008B5162140F24310A7
:100A1C00FFF7D8FF012000F04BFA142140F24310ED
:100A2C00FFF7D0FF08BD08B5342140F24310FFF7A3
:100A3C00C9FF012000F03CFA142140F24310FFF7EB
:100A4C00C1FF012000F034FA08BD000010B50446C7
:100A5C00032815D8DFE800F00219447CFF214FF47D
:100A6C00A270FFF7AFFF012140F24510FFF7AAFF7C
:100A7C000D214FF4A070FFF7A5FF012000F018FA2C
:100A8C0021464D4800F03AFC10BD00214FF4A070F7
:100A9C00FFF798FF012000F00BFAFFF7B5FF1421C8
:100AAC0040F24310FFF78EFF002140F23910FFF7A0
:100ABC0089FF00214FF4A270FFF784FF002140F260
:100ACC004510FFF77FFFFFF7AEFFFF214FF4A27039
:100ADC00FFF778FF012140F24510FFF773FFCFE7D6
:100AEC0000214FF4A070FFF76DFF012000F0E0F93A
:100AFC00FFF78AFF142140F24310FFF763FF002138
:100B0C0040F23910FFF75EFF00214FF4A270FFF79F
:100B1C0059FF002140F24510FFF754FFFFF783FF08
:100B2C00FF214FF4A270FFF74DFF012140F2451059
:100B3C00FFF748FF242140F24310FFF743FF022147
:100B4C0040F23910FFF73EFF012000F0B1F997E7B2
:100B5C0001214FF4A070FFF735FF012000F0A8F938
:100B6C00FFF752FF142140F24310FFF72BFF002137
:100B7C0040F23910FFF726FF00214FF4A270FFF767
:100B8C0021FF002140F24510FFF71CFFFFF74BFF40
:100B9C00FF214FF4A270FFF715FF012140F2451021
:100BAC00FFF710FF032140F23910FFF70BFF012074
:100BBC0000F07EF964E700BF0821000810B5044678
:100BCC00342140F24310FFF7FDFE022140F23910B0
:100BDC00FFF7F8FE012000F06BF921464FF49F70EF
:100BEC00FFF7F0FE012000F063F9FFF70DFF012283
:100BFC00A2402146014800F081FB10BD28210008CD
:100C0C0038B50546002403E0012000F051F9033407
:100C1C00B4F5BC7F3CD2002210211F48FFF72CFBFF
:100C2C00285DFFF7BFFE631CE85CFFF7BBFEA31C4F
:100C3C00E85CFFF7B7FE80211848FFF784FC012819
:100C4C00F9D0012210211448FFF716FB002CDBD041
:100C5C00B4F5A57FDBD1002210210F48FFF70CFB68
:100C6C000120FFF79FFE7320FFF79CFE1020FFF77B
:100C7C0099FE80210948FFF766FC0128F9D0012272
:100C8C0010210548FFF7F8FA012000F011F9BEE732
:100C9C00FFF7BAFE38BD00BF00080140003001402C
:100CAC0010B5044680210548FFF7E7FC0028F9D071
:100CBC00A1B20248FFF7D9FC204610BD0038014014
:100CCC0070B50C461646002504E014F8010BFFF72E
:100CDC00E7FF0135B542F8DB304670BD10B586B084
:100CEC0001210420FFF7D0FB01214FF48040FFF7D6
:100CFC00CBFB4FF40073ADF8143018238DF817307C
:100D0C0003238DF816301A4C05A92046FFF754FA28
:100D1C004FF48063ADF8143004238DF8173005A917
:100D2C002046FFF749FA4FF4E13301930023ADF865
:100D3C000830ADF80A30ADF80C30ADF810300C239B
:100D4C00ADF80E3004F5405401A92046FFF702FC23
:100D5C00012240F225512046FFF76CFC054B202266
:100D6C005A6001212046FFF757FC06B010BD00BFAA
:100D7C000008014000E100E010B540F22551324876
:100D8C00FFF786FC30B908212F48FFF776FC0128C5
:100D9C0050D010BD2C4C40F225512046FFF79DFC45
:100DAC002046FFF766FCC0B2284B1B787BB9552850
:100DBC0003D0274B00221A70E5E7264A1378591CFA
:100DCC001170254AD054214B01221A70F1E7012BE6
:100DDC0017D020490A78531CDBB20B701E4988547B
:100DEC00082BD0D18B790D2B02D1CB790A2B1AD0B1
:100DFC001A4800F0EBFA0023164A1370134A1370CA
:100E0C00C1E75D2805D00023124A13700F4A1370F6
:100E1C00B9E7104A1378591C11700F4AD0540B4B78
:100E2C0002221A70AFE70A4B01221A700C4B0022F7
:100E3C001A70E0E7044C08212046FFF725FC2046F9
:100E4C00FFF717FCA5E700BF003801401C0200208B
:100E5C001D0200201F020020200200205C2100083F
:100E6C001E020020034B1B681BB1024A1368013B96
:100E7C0013607047280200200A4B1B680A4AA2FB29
:100E8C0003239B09013BB3F1807F0AD24FF0E02290
:100E9C005361064BF02183F8231000239361072341
:100EAC001361704724000020D34D621000ED00E068
:100EBC0028B1034A1060024B1B68002BFBD1704712
:100ECC002802002008B5FFF7CDFF08BD38B50C4649
:100EDC00C37803F00F011B0902292DD0032950D030
:100EEC00012968D1427912F0010F12D043B90122C5
:100EFC0011463448FFF7C0F9334800F067FA5DE05B
:100F0C00012202212F48FFF7B7F9304800F05EFAB2
:100F1C0054E043B9002201212A48FFF7ADF92C48CF
:100F2C0000F054FA4AE0002202212648FFF7A4F907
:100F3C00284800F04BFA41E08BB9224D01221146B2
:100F4C002846FFF799F90120FFF7B2FF0022012193
:100F5C002846FFF791F9204800F038FA2EE0194D99
:100F6C00012202212846FFF787F90120FFF7A0FF95
:100F7C00002202212846FFF77FF9184800F026FAD4
:100F8C001CE06BB1012B19D1457905F003052846FE
:100F9C00FFF714FE0121A940114800F0AFF90DE054
:100FAC00457905F003052846FFF750FD29460D4805
:100FBC0000F0A4F902E00C4800F0A0F90123237022
:100FCC0038BD00BF001401406421000878210008DE
:100FDC00882100089C210008B0210008CC210008C1
:100FEC0004220008E82100081C22000810B5FFF7B5
:100FFC00C7FBFFF741FFFFF789FCFFF7F7FBFFF794
:10100C006DFE3B4C2046FFF7FBFD6420FFF750FFC5
:10101C002046FFF7F5FD00244FF400513548FFF74B
:10102C0024F9A0B14FF400413248FFF71EF9F0B19A
:10103C000024314B1B78002BEED0304B1B78002B4F
:10104C00EAD12E492E48FFF741FFE5E702244FF481
:10105C0000512848FFF709F9C0B94FF40041254861
:10106C00FFF703F90028F1D10124F0E704244FF431
:10107C0000412048FFF7F9F840B94FF400511D48E2
:10108C00FFF7F3F80028F1D10324F0E7022C0FD07E
:10109C00042CCED102211B48FFF7E7F8F8B9012246
:1010AC0002211848FFF7E8F8174800F08FF9C0E75D
:1010BC0001211448FFF7D9F840B901221146114813
:1010CC00FFF7DAF8114800F081F9B2E700220121AC
:1010DC000C48FFF7D1F80E4800F078F9A9E7002288
:1010EC0002210848FFF7C8F80A4800F06FF9A0E79A
:1010FC0028000020001001401D0200201E020020CC
:10110C00200200200014014078210008642100080E
:10111C00882100089C210008002103E00B4B5B5840
:10112C00435004310A480B4B42189A42F6D30A4AF0
:10113C0002E0002342F8043B084B9A42F9D3FFF734
:10114C001FFB00F06FFAFFF751FF70479422000865
:10115C000000002000020020000200207C03002080
:10116C00FEE77047FEE7FEE7FEE7FEE770477047D5
:10117C0070470000002310B50446C0E90033C0E9F5
:10118C000433836081814366C281836119460822DE
:10119C005C3000F0F9F90D4B246263620C4BA362D6
:1011AC000C4BE3620C4B23630C4B9C4206D003F1BB
:1011BC006802944202D0D0339C4205D104F158000D
:1011CC00BDE8104000F052BA10BD00BFE913000892
:1011DC000B14000843140008691400082C020020AA
:1011EC00024A0349034800F06BB800BFA401002079
:1011FC00111F0008B401002041680C4B10B5994236
:10120C00044601D000F07EFEA168094B994202D041
:10121C00204600F077FEE168064B994204D0204648
:10122C00BDE8104000F06EBE10BD00BF2C020020C7
:10123C0094020020FC0200200C4B0D4A10B5042136
:10124C001A600C480022FFF795FF0A4B01221C463E
:10125C00092103F16800FFF78DFF04F1D000022291
:10126C00BDE810401221FFF785BF00BF64030020CA
:10127C00ED1100082C020020014800F0F8B900BF65
:10128C006D030020014800F0F3B900BF6D0300208E
:10129C0010B50446FFF7F0FF236A1BB1BDE8104000
:1012AC00FFF7F0BF044B2362044B1B68002BF5D1F6
:1012BC00FFF7C2FFF2E700BF05120008640300202D
:1012CC002DE9F8430746884614460026D4E90195D3
:1012DC00B9F1010905D52468002CF7D13046BDE8D9
:1012EC00F883AB89012B07D9B5F90E30013303D044
:1012FC0029463846C04706436835E9E70FB407B5B9
:10130C00064904AB086853F8042B8168019300F07C
:10131C00CFFA03B05DF804EB04B07047B0010020C5
:10132C00036A70B505460E4684680BB9FFF7B0FF2B
:10133C00636EDB0705D4A389980502D4A06D00F079
:10134C0096F9A389190702D52369002B35D12146BB
:10135C00284600F0C5F880B34FF0FF35636EDA070E
:10136C0005D4A3899B0502D4A06D00F081F9284611
:10137C0070BD002B04DAA269934217DB0A2915D041
:10138C0023685A1C22601970A36816F8011F013BD0
:10139C00A3600029EDD1002B11DA22460A21284640
:1013AC0000F060F80130D7D00A25D7E7224628464E
:1013BC0000F058F80130E7D1CEE7013EE4E72368AE
:1013CC005A1C22600A221A70EEE70000024B0146FA
:1013DC001868FFF7A5BF00BFB001002010B50C4680
:1013EC00B1F90E1000F0FAF80028ABBF636DA389B9
:1013FC001B1823F48053ACBF6365A38110BD2DE98A
:10140C00F0411F468B890546DB050C46164605D573
:10141C0002230022B1F90E1000F0CEF8A389324657
:10142C0023F48053A38128463B46B4F90E10BDE843
:10143C00F04100F0E5B810B50C46B1F90E1000F013
:10144C00BBF8B4F90C30421C0BBF23F4805343F4AB
:10145C008053A381A38118BF606510BDB1F90E1034
:10146C0000F09AB8F8B50E461446054618B1036A52
:10147C000BB9FFF70DFFA369A360A3891A0701D568
:10148C00236943B92146284600F02AF818B14FF0D9
:10149C00FF373846F8BD23682269F6B2981A63699B
:1014AC003746834205DC2146284600F02BFD0028F8
:1014BC00EDD1A368013BA36023685A1C22601E7007
:1014CC006269431C9A4204D0A389DB07E1D50A2E3A
:1014DC00DFD12146284600F015FD0028D9D0D6E7EB
:1014EC0038B5284B054618680C4618B1036A0BB979
:1014FC00FFF7CEFEB4F90C301A0721D4D80607D466
:10150C0009222A6043F040034FF0FF30A38130E002
:10151C00590712D5616B41B104F14403994202D0D1
:10152C00284600F0A7F8002363630022B4F90C30BE
:10153C006260226923F02403226043F00803A38134
:10154C0022693AB99A0501D5180603D521462846D1
:10155C0000F024FDB4F90C3013F001020AD0002283
:10156C00A26062695242A261226942B913F0800002
:10157C00C8D138BD990758BF6269A260F4E7002052
:10158C00F7E700BFB001002003460244934200D1AC
:10159C00704703F8011BF9E738B50023054D0446E5
:1015AC0008462B6000F074FD431C02D12B6803B17C
:1015BC00236038BD6803002038B504460846114640
:1015CC000022054D2A601A4600F07AFD431C02D118
:1015DC002B6803B1236038BD6803002038B504467E
:1015EC00084611460022054D2A601A4600F070FD8F
:1015FC00431C02D12B6803B1236038BD6803002063
:10160C0038B50446084611460022054D2A601A4694
:10161C00FFF756FB431C02D12B6803B1236038BD86
:10162C006803002070B500260C4D0D4B5B1B9C1005
:10163C00A64209D1002600F017FE0A4D0A4B5B1B8F
:10164C009C10A64205D170BD55F8043B9847013655
:10165C00EEE755F8043B98470136F2E78C22000878
:10166C008C2200088C2200089022000870477047DA
:10167C007047000038B50546002940D051F8043CAD
:10168C000C1F002BB8BFE41800F0DEF81C4A1368DE
:10169C0033B9636014602846BDE8384000F0DAB80E
:1016AC00A34208D9206821188B4201BF19685B68D6
:1016BC0009182160EDE71A465B680BB1A342FAD911
:1016CC0011685018A0420BD1206801445018834275
:1016DC001160E0D118685B68084410605360DAE769
:1016EC0002D90C232B60D6E7206821188B4201BF4E
:1016FC0019685B680918216063605460CBE738BDDA
:10170C007403002070B50F4E0C463168054611B9B4
:10171C0000F0A0FC30602146284600F09BFC431CE6
:10172C0003D14FF0FF34204670BDC41C24F00304D9
:10173C00A042F8D0211A284600F08CFC0130F2D1DE
:10174C00EFE700BF700300202DE9F843CD1C25F016
:10175C00030508350C2D38BF0C25002D064601DB82
:10176C00A94204D90C2333600020BDE8F883DFF8CC
:10177C00D48000F069F8D8F800301C4644BB2946E8
:10178C003046FFF7BFFF431C044658D1D8F8004041
:10179C002746002F43D1002C4BD0236839463046C6
:1017AC0004EB030900F056FC814542D12168304618
:1017BC006D1A2946FFF7A6FF01303AD023682B4457
:1017CC002360D8F800305A6862BBC8F800700FE08C
:1017DC002268521B20D40B2A17D96119A342256009
:1017EC0018BF5960636808BFC8F8001062514B609D
:1017FC00304600F02FF804F10B00231D20F00700F9
:10180C00C21A1CBF1B1AA350AFE76268A3420CBFDD
:10181C00C8F800205A60EBE723466468AEE73C4604
:10182C007F68B6E71A465B68A342FBD1002353607E
:10183C00DEE70C233046336000F00CF894E70560CB
:10184C00D6E700BF740300200148FFF710BF00BFAC
:10185C006C0300200148FFF70BBF00BF6C03002096
:10186C00936810B4013B002B936007DA9469A34290
:10187C0001DB0A2902D110BCFFF7F4BD1368581C18
:10188C0010601970084610BC7047F8B506460F4634
:10189C001446D518AC4201D1002007E03A46304638
:1018AC0014F8011BFFF7DCFF431CF3D1F8BD00005B
:1018BC002DE9F0470D4614461F4606469CB018B15C
:1018CC00036A0BB9FFF7E4FC6B6ED90705D4AB893F
:1018DC009A0502D4A86DFFF7CAFEAB891B0701D588
:1018EC002B699BB929463046FFF7FAFD70B16B6E38
:1018FC00DC0704D54FF0FF301CB0BDE8F087AB8996
:10190C009805F7D4A86DFFF7B3FEF3E7002309930E
:10191C0020238DF8293030234FF001080397694FAD
:10192C008DF82A302346994613F8012B0AB1252A43
:10193C00F9D1B9EB040A0BD053462246294630465E
:10194C00FFF7A3FF013000F0A480099A52440992DA
:10195C0099F80030002B00F09C8000234FF0FF32F0
:10196C00CDE9052309F10109049307938DF8533050
:10197C001A934C46052214F8011B524800F07AFBCE
:10198C00049BD0B9D90644BF20228DF853201A07E6
:10199C0044BF2B228DF8532099F800202A2A13D00B
:1019AC004C4600204FF00A0C079A214611F8013BD7
:1019BC00303B092B49D968B913E0C01B08FA00F079
:1019CC001843A1460490D4E7039A111D12680391A1
:1019DC00002A01DB079204E0524243F00203079213
:1019EC00049323782E2B0AD163782A2B32D1039BB4
:1019FC0002341A1D1B68039243EAE3730593DFF864
:101A0C00C89003224846217800F034FB38B14022BC
:101A1C00049BA0EB0900824013430134049314F897
:101A2C00011B062229488DF8281000F023FB002802
:101A3C003ED0274818BB039B073323F0070308331A
:101A4C000393099B034409936CE70C4601200CFBA0
:101A5C000232AAE700234FF00A0C19460134059311
:101A6C00204610F8012B303A092A03D9002BC6D096
:101A7C000591C4E7044601230CFB0121F0E703ABFD
:101A8C0000932A463046134B04A9AFF30080431C45
:101A9C00D7D16B6ED90705D4AB899A0502D4A86D42
:101AAC00FFF7E6FDAB895B063FF524AF099823E70A
:101ABC0003AB00932A463046064B04A900F07EF88F
:101ACC00E5E700BF41220008472200084B2200082E
:101ADC0000000000971800082DE9F04716469846BC
:101AEC008A680B6907469342B8BF1346336091F876
:101AFC0043200C46DDF820900AB101333360236893
:101B0C00990642BF336802333360256815F0060529
:101B1C0006D104F1190AE36832689B1AAB422BDC3C
:101B2C0094F843302268003B18BF0123920630D44E
:101B3C004146384604F14302C847013023D023689C
:101B4C00226903F00603042B14BF002533684FF001
:101B5C00000608BFE56804F11A0408BFED1A54F832
:101B6C00123C08BF25EAE5759342C4BF9B1AED18D9
:101B7C00B5421AD1002008E00123524641463846AE
:101B8C00C847013003D14FF0FF30BDE8F087013575
:101B9C00C1E73020E11881F843005A1C94F8451035
:101BAC002244023382F84310C2E701232246414605
:101BBC003846C8470130E6D00136D9E72DE9F04365
:101BCC000D7E85B0782D904607460C4699460C9EA6
:101BDC0001F1430207D8622D0AD8002D00F0D780FE
:101BEC00582D00F0BC8004F1420684F842503BE0D2
:101BFC00A5F16303152BF6D801A151F823F000BF12
:101C0C00651C0008791C0008F31B0008F31B000876
:101C1C00F31B0008F31B0008791C0008F31B0008D9
:101C2C00F31B0008F31B0008F31B0008811D0008C0
:101C3C00A31C0008331D0008F31B0008F31B00084D
:101C4C00A31D0008F31B0008A31C0008F31B0008CD
:101C5C00F31B00083B1D000833681A1D1B6832601B
:101C6C0004F1420684F842300123A1E03368206875
:101C7C00191D3160060601D51D6803E04506FBD52C
:101C8C00B3F90050002D03DA2D236D4284F8433054
:101C9C000A235B4811E021683368080653F8045B9B
:101CAC0002D4490648BFADB23360237E54486F2B33
:101CBC005CD10823002184F843106668002EA660CE
:101CCC0005DB21682E4321F00401216050D016461B
:101CDC00B5FBF3F103FB115C10F80CC006F801CD59
:101CEC00AC4663450D46F3D9082B0BD12368DB07B3
:101CFC0008D5236961689942DEBF302306F8013CA0
:101D0C0006F1FF36921B2261434621463846CDF838
:101D1C00009003AAFFF7E0FE01304ED14FF0FF30E8
:101D2C0005B0BDE8F083236843F0200323607825D9
:101D3C00344884F845502368316813F0800F51F80B
:101D4C00045B03D113F0400F18BFADB23160D9075B
:101D5C0044BF43F0200323601DB11023AAE7284899
:101D6C00E7E7236823F020032360F6E70A23A1E7C3
:101D7C001646B9E733682568181D616930602E0670
:101D8C001B6801D5196002E06806FBD51980002399
:101D9C0016462361B8E7336800211A1D32601E68AD
:101DAC006268304600F066F908B1801B60606368B9
:101DBC002361002384F84330A6E732464146384677
:101DCC002369C8470130A9D023689B0713D4E06866
:101DDC00039B9842B8BF1846A2E7012332464146FE
:101DEC003846C847013099D00135E36803995B1A2E
:101DFC00AB42F2DCEBE7002504F11906F5E700BF76
:101E0C005222000863220008B1F90C20F8B516071D
:101E1C0005460C4651D44B68002B02DC0B6C002B96
:101E2C0049DDE66A002E46D0002312F480522F685A
:101E3C002B6031D0626DA389590705D56368D21A1E
:101E4C00636B0BB1236CD21A00232846E66A216A15
:101E5C00B047421CB4F90C3006D129681D2945D86D
:101E6C00274ACA40D60741D5002262602269D904AC
:101E7C00226004D5421C01D12B6803B96065616BEB
:101E8C002F60C1B104F14403994202D02846FFF7F8
:101E9C00F1FB002363630EE001232846216AB0475F
:101EAC000246501CC7D12B68002BC4D01D2B01D06F
:101EBC00162B19D12F6000201DE00F69002FFAD0CE
:101ECC00930718BF00230E6808BF4B69F61B0F6001
:101EDC008B60002EEFDD33463A462846216AD4F853
:101EEC0028C0E047002807DCB4F90C304FF0FF3075
:101EFC0043F04003A381F8BD0744361AE9E700BF5D
:101F0C000100402038B50B6905460C4613B9002575
:101F1C00284638BD18B1036A0BB9FFF7B9F9B4F903
:101F2C000C30002BF3D0626ED00704D4990502D488
:101F3C00A06DFFF79CFB28462146FFF765FF636EFB
:101F4C000546DA07E4D4A3899B05E1D4A06DFFF71D
:101F5C008FFBDDE770B50C46B1F90E101546002964
:101F6C001E4696B00ADAA18911F0800113D14FF404
:101F7C008062002031602A6016B070BD6A4600F0A5
:101F8C0047F80028EFDB019901F47041A1F50053EB
:101F9C0059425941EBE700214022EAE78B8973B59E
:101FAC009E0705460C4607D504F1470323602361C1
:101FBC000123636102B070BD01AB6A46FFF7CAFF33
:101FCC00009E28463146FFF7BFFBB4F90C3038B9F8
:101FDC009A05EFD423F0030343F00203A381E3E754
:101FEC0043F08003A381019BC4E904062060002B0D
:101FFC00E0D02846B4F90E1000F01CF80028D9D017
:10200C00A38923F0030343F00103A381D2E700006B
:10201C0038B50023064D0446084611462B6000F0E7
:10202C003FF8431C02D12B6803B1236038BD00BFBD
:10203C006803002038B50023054D044608462B6084
:10204C0000F036F8431C02D12B6803B1236038BD75
:10205C006803002038B50023054D044608462B6064
:10206C0000F03EF8431C02D12B6803B1236038BD4D
:10207C0068030020034610B5C9B2024493421846C7
:10208C0001D1002003E0047801338C42F6D110BD5D
:10209C005822024B4FF0FF301A6070476803002043
:1020AC005822024B4FF0FF301A6070476803002033
:1020BC005822024B00201A60704700BF68030020B2
:1020CC005822024B4FF0FF301A6070476803002013
:1020DC005822024B4FF0FF301A6070476803002003
:1020EC00044A05491368002B08BF0B4618441060BE
:1020FC0018467047780300207C0300205359535234
:10210C004546206D6F6465207377697463686564F8
:10211C0020746F3A2025640D0A0000005359535265
:10212C0045462050756C73652073656E742C206366
:10213C006F756E743A202564202861637475616C28
:10214C002070756C7365733A202564290D0A0000A4
:10215C004572726F72210D00747269675F6F7574CE
:10216C00206973204F4E2E0D0000000074726967B9
:10217C005F696E206973204F4E2E0D007472696773
:10218C005F6F7574206973204F46462E0D0000005A
:10219C00747269675F696E206973204F46462E0D15
:1021AC00000000004120747269675F6F75742070C5
:1021BC00756C73652069732073656E742E0D000049
:1021CC004120747269675F696E2070756C7365204D
:1021DC0069732073656E742E0D00000053595352B1
:1021EC004546204D55582073657420746F3A202550
:1021FC00642E0D0A000000005359535245462050DE
:10220C00756C7365204E756D3A2025640D0A0000BF
:10221C006C6D6B5F636C6B5F67656E3A20556E6BB4
:10222C006E6F776E20636F6D6D616E643A20253032
:10223C0032580D0A00232D302B2000686C4C0065A1
:10224C0066674546470030313233343536373839D6
:10225C004142434445460030313233343536373809
:10226C003961626364656600F8B500BFF8BC08BCF0
:10227C009E467047F8B500BFF8BC08BC9E46704738
:04228C0075010008D0
:042290004D010008F4
:102294000204060800000000010203040102030412
:1022A4000607080900000000000000000102030402
:1022B4000607080900A24A0400009000001000026A
:1022C400000003060004D1000563000670000C51F1
:1022D400000D0401000B01010A0102100103440175
:1022E400042101052001060101074501080B01092C
:1022F4000A010A90010B44010C21010D00010E0199
:10230400010F0001100B01110A0112800113500189
:10231400142001150001160101170001180B011901
:102324000A011A80011B50011C20011D00011E011D
:10233400011F0001200801210A01229001235001FC
:102344002410012500012601012700012808012984
:102354000A012A90012B50012C10012D00012E019D
:10236400012F0001300B01310A0132100133440105
:102374003421013500013601013745013825013981
:1023840003013A01013BB8013C00013D08013E0153
:10239400013F0501400001410001420001431301D6
:1023A40044FF01450001461901470E014802014955
:1023B40042014A03014B06014C00014D00014EC08D
:1023C400014F7F01500101510201520001530001EC
:1023D400547D015500015678015700015896015962
:1023E40006015A00015BD4015C20015D00015E1E00
:1023F400015F0B016000016104016264016300017B
:102404006400016521016600016700016950016AE9
:1024140020016B00016E130173100177000182002B
:102424000183000184800185000188000168210581
:102434005500000000000000030000002C020020F2
:10244400B4010020000000002C02002094020020AF
:10245400FC0200200000000000000000000000005A
:102464000000000000000000000000000000000068
:102474000000000000000000000000000000000058
:102484000000000000000000000000000000000048
:0400000508001125B9
:00000001FF
