:020000040800F2
:1000000000500020DD0F000827100008291000080C
:100010002B1000082D1000082F1000080000000011
:100020000000000000000000000000003110000887
:10003000331000080000000035100008910D000882
:1000400025100008251000082510000825100008BC
:1000500025100008251000082510000825100008AC
:10006000251000082510000825100008251000089C
:10007000251000082510000825100008251000088C
:10008000251000082510000825100008251000087C
:10009000251000082510000825100008251000086C
:1000A000251000082510000825100008251000085C
:1000B000251000082510000825100008251000084C
:1000C000251000082510000825100008251000083C
:1000D00025100008450C0008251000082510000810
:1000E0002510000825100008251000080000000059
:1000F0000000000000000000000000000000000000
:0C01000000000000000000005FF808F1A3
:10010C000348044B834202D0034B03B1184770479A
:10011C00DC010020DC010020000000000548064B3B
:10012C001B1AD90F01EBA301491002D0034B03B1E9
:10013C0018477047DC010020DC01002000000000A3
:10014C0010B5064C237843B9FFF7DAFF044B13B113
:10015C000448AFF300800123237010BDDC010020A4
:10016C00000000000C01000808B5054B1BB1054947
:10017C000548AFF30080BDE80840FFF7CFBF00BFD4
:10018C0000000000E00100200C010008034A136885
:10019C0003F0380303431360704700BF0020024094
:1001AC00044B1A6822F010021A601A6802431A6093
:1001BC00704700BF0020024030B5CB7803F00F022F
:1001CC00964613F0100F03D091F802E04EEA020E9F
:1001DC000B78FBB10568002301E042610133072B6A
:1001EC0017D801229A40B1F800C032EA0C0CF5D1B4
:1001FC009C004FF00F0C0CFA04FC25EA0C050EFACF
:10020C0004F42543CC78282CE7D0482CE6D10261A5
:10021C00E4E705600B88FF2B25D94568002303E034
:10022C00CC78482C1CD00133072B1BD803F1080CBD
:10023C00012202FA0CF2B1F800C032EA0C0CF2D135
:10024C009C004FF00F0C0CFA04FC25EA0C0C0EFA77
:10025C0004F444EA0C05CC78282CE1D14261DFE7A8
:10026C000261E0E7456030BD8368194201D001208E
:10027C007047002070470AB10161704741617047B7
:10028C0030B4002815DB1C4B5B68C0F3034482B20E
:10029C0000F4401CBCF5401F0ED010F4801F1DD084
:1002AC004FF0030C0CFA04F423EA040343F07063DC
:1002BC0009E0114BDB69E8E723F070630E4D6C68C5
:1002CC0024F070646C6019B1410D09018A4013432C
:1002DC0000280EDB084A536030BC70474FEA505C74
:1002EC004FEA0C1C02FA0CFC23EA0C0343F070637B
:1002FC00E9E7014AD361EFE7000001400D4B1A68B2
:10030C0042F001021A6059680B4A0A405A601A6896
:10031C0022F0847222F480321A601A6822F480224D
:10032C001A605A6822F4FE025A604FF41F029A6057
:10033C00704700BF001002400000FFF8014B18602E
:10034C00704700BF00004242034A536823F47C13F9
:10035C00084318435060704700100240014B186668
:10036C00704700BF00004242034A536823F0030366
:10037C0003435360704700BF00100240024B5868A3
:10038C0000F00C00704700BF00100240034A536895
:10039C0023F0F00303435360704700BF001002408A
:1003AC00034A536823F4E06303435360704700BF70
:1003BC0000100240034A536823F4605343EAC0031D
:1003CC00536070470010024010B4274B5B6803F079
:1003DC000C03042B25D0082B26D0002B41D1234B0A
:1003EC000360214A5368C3F30313214CE15C036897
:1003FC00CB4043605168C1F30221615C23FA01F1E7
:10040C0081605168C1F3C221615CCB40C36052680A
:10041C00C2F3813217498A5CB3FBF2F3036110BC5F
:10042C007047124B0360DCE70F4A53685268C3F302
:10043C008343023312F4803F04D10F4A02FB03F3CF
:10044C000360CEE7084A526812F4003F04D00A4A0F
:10045C0002FB03F30360C4E7044A02FB03F30360EB
:10046C00BFE7024B0360BCE70010024000127A00A9
:10047C00C41F0008C01F000800093D0021B1054A37
:10048C009369034393617047024A936923EA00031B
:10049C0093617047001002404309012B0BD0022BD3
:1004AC000CD0094B5B6A00F01F00C34013F0010F26
:1004BC0007D001207047044B1B68F4E7024B1B6A02
:1004CC00F1E70020704700BF001002402DE9F04119
:1004DC00028802F441520F88B1F802808E88CD88D0
:1004EC000C89B1F80AE0B1F80CC0CB8947EA0807CF
:1004FC003E4335432C434EEA040E4CEA0E0C43EAC1
:10050C000C0313430380838B9BB223F400639BB2D5
:10051C0083830B8A0382BDE8F08129B103889BB2E7
:10052C0043F040030380704703889BB223F04003E1
:10053C009BB203807047818170470389194201D0B7
:10054C00012070470020704730B587B004460D4637
:10055C00038A9BB2CA8823F44053134303828389D2
:10056C009BB2898828896A8901430A4323F4B053D2
:10057C0023F00C031343A381A38A9BB2AA8923F40F
:10058C0040731343A38201A8FFF71EFF1D4B9C422F
:10059C0024D0039BA28912F4004F21D103EB8303D7
:1005AC0003EB83032A689200B3FBF2F3164AA2FB17
:1005BC00031252091101642002FB1033A28912F4B8
:1005CC00004F16D11B0132330F4AA2FB0323C3F396
:1005DC0043130B439BB2238107B030BD049BD9E777
:1005EC0003EB830303EB83032A685200B3FBF2F3A0
:1005FC00DCE7DB003233044AA2FB0323C3F34213D0
:10060C000B43E7E7003801401F85EB5129B1838983
:10061C009BB243F400538381704783899BB223F4CC
:10062C0000539BB283817047C1F3421C01F01F0140
:10063C0001238B40BCF1010F08D0BCF1020F07D095
:10064C0014303AB102681343036070470C30F8E77A
:10065C001030F6E7026822EA030303607047C1F327
:10066C000801818070478088C0F3080070470388B8
:10067C00194201D00120704700207047C94389B24C
:10068C0001807047C1F3421201F01F0C012303FAE1
:10069C000CF3012A0FD0022A11D0828A92B2134095
:1006AC00090A012202FA01F1028892B20A4053B1FE
:1006BC005AB900207047828992B21340F0E7028A3F
:1006CC0092B21340ECE70020704701207047090AF2
:1006DC0001238B409BB2DB439BB20380704700002D
:1006EC001F4B5B6803F00C03042B11D0082B13D0A9
:1006FC00002B31D11B4B1C4A1A60194B5B68C3F39E
:10070C0003131A4AD15C174A1368CB401360704725
:10071C00144B154A1A60F0E7114A53685268C3F338
:10072C008343023312F4803F05D1114A02FB03F3D9
:10073C000C4A1360E1E70A4A526812F4003F05D0F4
:10074C000B4A02FB03F3074A1360D6E7064A02FB87
:10075C0003F3044A1360D0E7024B034A1A60CCE758
:10076C00001002400000002000127A00D41F000884
:10077C0000093D0008B5FFF7C1FD0120FFF7DEFDC4
:10078C002120FFF789FE0028FAD01020FFF708FD82
:10079C000220FFF7FBFC0020FFF7E6FD0020FFF72F
:1007AC00F5FD4FF48060FFF7FBFD0020FFF702FE24
:1007BC004FF460110020FFF7C7FD0120FFF7CEFDBD
:1007CC003920FFF769FE0028FAD00220FFF7CCFD94
:1007DC00FFF7D4FD0828FBD1FFF782FF08BD00000E
:1007EC002DE9F04383B001213420FFF747FE4FF48D
:1007FC006043ADF8043048238DF8073001248DF8A0
:10080C00064001AF39465148FFF7D6FC0C23ADF832
:10081C00043000268DF8076003258DF80650DFF8AC
:10082C00308139464046FFF7C7FC4FF40063ADF802
:10083C0004304FF010098DF807908DF806403946BA
:10084C004046FFF7B9FC4FF48073ADF80430042335
:10085C008DF807308DF8065039464046FFF7ACFC52
:10086C00ADF804508DF807908DF806503946404687
:10087C00FFF7A2FC21462046FFF700FE21464FF46D
:10088C000040FFF7FDFCADF804508DF807908DF893
:10089C000650304D39462846FFF78EFC3246022171
:1008AC002846FFF7E8FC324621462846FFF7E3FCD2
:1008BC00224602212846FFF7DEFC22462146284626
:1008CC00FFF7D9FC204600F053FA324602212846A5
:1008DC00FFF7D1FC324621462846FFF7CCFC2046D8
:1008EC0000F046FA224602212846FFF7C4FC2246B5
:1008FC0021462846FFF7BFFC204600F039FA324665
:10090C0002212846FFF7B7FC324621462846FFF75E
:10091C00B2FC204600F02CFA224602212846FFF7B2
:10092C00AAFC224621462846FFF7A5FC204600F0EB
:10093C001FFA324602212846FFF79DFC324621461B
:10094C002846FFF798FC03B0BDE8F0830010014087
:10095C00000801400014014070B586B0012141F23D
:10096C000400FFF78BFDA023ADF8143018238DF88D
:10097C00173003238DF8163005AE1C4C314620463B
:10098C00FFF71AFC1025ADF814508DF817503146AE
:10099C002046FFF711FC012229462046FFF76BFC8D
:1009AC000023ADF800304FF48272ADF80220ADF8A0
:1009BC000430ADF80630ADF808304FF40072ADF8E5
:1009CC000A202022ADF80C20ADF80E300723ADF82C
:1009DC00103004F5205469462046FFF777FD0121BD
:1009EC002046FFF79AFD06B070BD00BF000801401D
:1009FC0010B5044602210548FFF79FFD0028F9D0E9
:100A0C0021460248FFF797FD10BD00BF00300140A2
:100A1C0038B50546002403E0012000F0A9F90334A1
:100A2C00B4F5BC7F3CD2002210211E48FFF723FCFA
:100A3C00285DFFF7DDFF631CE85CFFF7D9FFA31C03
:100A4C00E85CFFF7D5FF80211748FFF776FD0128FA
:100A5C00F9D0012210211348FFF70DFC002CDBD03C
:100A6C00B4F5A57FDBD1002210210E48FFF703FC63
:100A7C000120FFF7BDFF7320FFF7BAFF1020FFF72F
:100A8C00B7FF80210848FFF758FD0128F9D0012253
:100A9C0010210448FFF7EFFB012000F069F9BEE7D5
:100AAC0038BD00BF000801400030014008B50022ED
:100ABC0010211048FFF7DFFB0120FFF799FF3920C9
:100ACC00FFF796FF0320FFF793FF0120FFF790FF3E
:100ADC004020FFF78DFF0120FFF78AFF8021064899
:100AEC00FFF72BFD0128F9D0012210210148FFF757
:100AFC00C2FB08BD000801400030014010B504469F
:100B0C00002210211448FFF7B6FB0120FFF770FFFD
:100B1C003920FFF76DFF0220FFF76AFF0120FFF776
:100B2C0067FF4020FFF764FF0020FFF761FF012003
:100B3C00FFF75EFF3E20FFF75BFF2046FFF758FFF5
:100B4C0080210648FFF7F9FC0128F9D00122102179
:100B5C000148FFF790FB10BD000801400030014038
:100B6C0010B5044680210548FFF781FD0028F9D017
:100B7C00A1B20248FFF773FD204610BD00380140BA
:100B8C0070B50C461646002504E014F8010BFFF76F
:100B9C00E7FF0135B542F8DB304670BD30B587B0A4
:100BAC0001210420FFF76AFC01214FF48040FFF77C
:100BBC0065FC4FF40073ADF8143018238DF8173022
:100BCC0003238DF8163005AD194C29462046FFF746
:100BDC00F3FA4FF48063ADF8143004238DF817301A
:100BEC0029462046FFF7E8FA4FF4E133019300233E
:100BFC00ADF80830ADF80A30ADF80C30ADF8103067
:100C0C000C23ADF80E3004F5405401A92046FFF733
:100C1C009BFC012240F225512046FFF705FD054BB8
:100C2C0020225A6001212046FFF7F0FC07B030BDAE
:100C3C000008014000E100E010B540F225513248B7
:100C4C00FFF720FD30B908212F48FFF710FD0128D0
:100C5C0050D010BD2C4C40F225512046FFF737FDEB
:100C6C002046FFF700FDC0B2284B1B787BB95528F6
:100C7C0003D0274B00221A70E5E7264A1378591C3B
:100C8C001170254AD054214B01221A70F1E7012B27
:100C9C0017D020490A78531CDBB20B701E498854BC
:100CAC00082BD0D18B790D2B02D1CB790A2B1AD0F2
:100CBC001A4800F0E7FA0023164A1370134A13700F
:100CCC00C1E75D2805D00023124A13700F4A137038
:100CDC00B9E7104A1378591C11700F4AD0540B4BBA
:100CEC0002221A70AFE70A4B01221A700C4B002239
:100CFC001A70E0E7044C08212046FFF7BFFC2046A1
:100D0C00FFF7B1FCA5E700BF00380140040200204A
:100D1C00F901002005020020FC010020E41F00085E
:100D2C00F8010020034B1B681BB1024A1368013BFE
:100D3C0013607047080200200A4B1B680A4AA2FB8A
:100D4C0003239B09013BB3F1807F0AD24FF0E022D1
:100D5C005361064BF02183F8231000239361072382
:100D6C001361704700000020D34D621000ED00E0CD
:100D7C0028B1034A1060024B1B68002BFBD1704753
:100D8C000802002008B5FFF7CDFF08BD70B50C4672
:100D9C00C37803F00F051B09022D2DD0032D50D065
:100DAC00012D51D1427912F0010F12D043B9012219
:100DBC0011463248FFF75FFA314800F063FA47E01A
:100DCC00012202212D48FFF756FA2E4800F05AFA5C
:100DDC003EE043B9002201212848FFF74CFA2A488B
:100DEC0000F050FA34E0002202212448FFF743FAC5
:100DFC00264800F047FA2BE08BB9204D0122114612
:100E0C002846FFF738FA0120FFF7B2FF0022012134
:100E1C002846FFF730FA1E4800F034FA18E0174D58
:100E2C00012202212846FFF726FA0120FFF7A0FF36
:100E3C00002202212846FFF71EFA164800F022FA7B
:100E4C0006E043B1012B0CD02946134800F0B2F94F
:100E5C000123237070BDFFF729FE104800F012FA31
:100E6C00F2E7467906F003063046FFF747FE01210C
:100E7C00B1400B4800F09EF9E6E700BF00140140BA
:100E8C00EC1F000800200008102000082420000897
:100E9C003820000854200008AC20000870200008FE
:100EAC008C20000810B5FFF765FCFFF745FFFFF736
:100EBC0053FDFFF795FCFFF771FE3B4C2046FFF707
:100ECC00A7FD6420FFF754FF2046FFF7A1FD002487
:100EDC004FF400513548FFF7C7F9A0B14FF400416A
:100EEC003248FFF7C1F9F0B10024314B1B78002BCD
:100EFC00EED0304B1B78002BEAD12E492E48FFF751
:100F0C0045FFE5E702244FF400512848FFF7ACF900
:100F1C00C0B94FF400412548FFF7A6F90028F1D1DC
:100F2C000124F0E704244FF400412048FFF79CF91A
:100F3C0040B94FF400511D48FFF796F90028F1D144
:100F4C000324F0E7022C0FD0042CCED102211B4835
:100F5C00FFF78AF9F8B9012202211848FFF78BF93B
:100F6C00174800F08FF9C0E701211448FFF77CF90E
:100F7C0040B9012211461148FFF77DF9114800F0E4
:100F8C0081F9B2E7002201210C48FFF774F90E48F1
:100F9C0000F078F9A9E7002202210848FFF76BF965
:100FAC000A4800F06FF9A0E704000020001001408F
:100FBC00F9010020F8010020FC0100200014014080
:100FCC0000200008EC1F0008102000082420000856
:100FDC00002103E00B4B5B58435004310A480B4B88
:100FEC0042189A42F6D30A4A02E0002342F8043B24
:100FFC00084B9A42F9D3FFF7BDFB00F06FFAFFF7ED
:10100C0051FF70472421000800000020DC01002063
:10101C00DC0100205C030020FEE77047FEE7FEE7E2
:10102C00FEE7FEE77047704770470000002310B5DD
:10103C000446C0E90033C0E9043383608181436610
:10104C00C2818361194608225C3000F0F9F90D4B1E
:10105C00246263620C4BA3620C4BE3620C4B236364
:10106C000C4B9C4206D003F16802944202D0D03360
:10107C009C4205D104F15800BDE8104000F052BA72
:10108C0010BD00BFA1120008C3120008FB1200081B
:10109C00211300080C020020024A0349034800F007
:1010AC006BB800BF80010020C91D00089001002012
:1010BC0041680C4B10B59942044601D000F07EFEFD
:1010CC00A168094B994202D0204600F077FEE168F6
:1010DC00064B994204D02046BDE8104000F06EBE8D
:1010EC0010BD00BF0C02002074020020DC020020A6
:1010FC000C4B0D4A10B504211A600C480022FFF766
:10110C0095FF0A4B01221C46092103F16800FFF7E9
:10111C008DFF04F1D0000222BDE810401221FFF730
:10112C0085BF00BF44030020A51000080C0200205E
:10113C00014800F0F8B900BF4D030020014800F051
:10114C00F3B900BF4D03002010B50446FFF7F0FFC4
:10115C00236A1BB1BDE81040FFF7F0BF044B2362BC
:10116C00044B1B68002BF5D1FFF7C2FFF2E700BF61
:10117C00BD100008440300202DE9F84307468846BB
:10118C0014460026D4E90195B9F1010905D5246866
:10119C00002CF7D13046BDE8F883AB89012B07D979
:1011AC00B5F90E30013303D029463846C047064303
:1011BC006835E9E70FB407B5064904AB086853F87E
:1011CC00042B8168019300F0CFFA03B05DF804EBB7
:1011DC0004B070478C010020036A70B505460E46BA
:1011EC0084680BB9FFF7B0FF636EDB0705D4A389E6
:1011FC00980502D4A06D00F096F9A389190702D5C1
:10120C002369002B35D12146284600F0C5F880B360
:10121C004FF0FF35636EDA0705D4A3899B0502D422
:10122C00A06D00F081F9284670BD002B04DAA2698C
:10123C00934217DB0A2915D023685A1C22601970B7
:10124C00A36816F8011F013BA3600029EDD1002B08
:10125C0011DA22460A21284600F060F80130D7D076
:10126C000A25D7E72246284600F058F80130E7D186
:10127C00CEE7013EE4E723685A1C22600A221A706A
:10128C00EEE70000024B01461868FFF7A5BF00BF50
:10129C008C01002010B50C46B1F90E1000F0FAF8D4
:1012AC000028ABBF636DA3891B1823F48053ACBF1C
:1012BC006365A38110BD2DE9F0411F468B8905465E
:1012CC00DB050C46164605D502230022B1F90E109B
:1012DC0000F0CEF8A389324623F48053A38128462C
:1012EC003B46B4F90E10BDE8F04100F0E5B810B57E
:1012FC000C46B1F90E1000F0BBF8B4F90C30421CDE
:10130C000BBF23F4805343F48053A381A38118BFF4
:10131C00606510BDB1F90E1000F09AB8F8B50E4624
:10132C001446054618B1036A0BB9FFF70DFFA36904
:10133C00A360A3891A0701D5236943B9214628461E
:10134C0000F02AF818B14FF0FF373846F8BD236883
:10135C002269F6B2981A63693746834205DC214646
:10136C00284600F02BFD0028EDD1A368013BA360BB
:10137C0023685A1C22601E706269431C9A4204D076
:10138C00A389DB07E1D50A2EDFD12146284600F0E0
:10139C0015FD0028D9D0D6E738B5284B0546186876
:1013AC000C4618B1036A0BB9FFF7CEFEB4F90C303A
:1013BC001A0721D4D80607D409222A6043F0400327
:1013CC004FF0FF30A38130E0590712D5616B41B16A
:1013DC0004F14403994202D0284600F0A7F80023F8
:1013EC0063630022B4F90C306260226923F0240399
:1013FC00226043F00803A38122693AB99A0501D50A
:10140C00180603D52146284600F024FDB4F90C300B
:10141C0013F001020AD00022A26062695242A2615A
:10142C00226942B913F08000C8D138BD990758BF62
:10143C006269A260F4E70020F7E700BF8C0100208E
:10144C0003460244934200D1704703F8011BF9E7AD
:10145C0038B50023054D044608462B6000F074FD9A
:10146C00431C02D12B6803B1236038BD4803002014
:10147C0038B50446084611460022054D2A601A4626
:10148C0000F07AFD431C02D12B6803B1236038BDF8
:10149C004803002038B50446084611460022054D85
:1014AC002A601A4600F070FD431C02D12B6803B170
:1014BC00236038BD4803002038B504460846114661
:1014CC000022054D2A601A46FFF75AFB431C02D135
:1014DC002B6803B1236038BD4803002070B500268B
:1014EC000C4D0D4B5B1B9C10A64209D1002600F045
:1014FC0003FE0A4D0A4B5B1B9C10A64205D170BD26
:10150C0055F8043B98470136EEE755F8043B9847ED
:10151C000136F2E71C2100081C2100081C210008E0
:10152C0020210008704770477047000038B5054609
:10153C00002940D051F8043C0C1F002BB8BFE41814
:10154C0000F0DEF81C4A136833B963601460284657
:10155C00BDE8384000F0DAB8A34208D92068211859
:10156C008B4201BF19685B6809182160EDE71A46C8
:10157C005B680BB1A342FAD911685018A0420BD189
:10158C0020680144501883421160E0D118685B68F0
:10159C00084410605360DAE702D90C232B60D6E7BD
:1015AC00206821188B4201BF19685B6809182160FB
:1015BC0063605460CBE738BD5403002070B50F4E08
:1015CC000C463168054611B900F0A0FC306021468C
:1015DC00284600F09BFC431C03D14FF0FF342046FF
:1015EC0070BDC41C24F00304A042F8D0211A284674
:1015FC0000F08CFC0130F2D1EFE700BF500300206B
:10160C002DE9F843CD1C25F0030508350C2D38BF0A
:10161C000C25002D064601DBA94204D90C233360AE
:10162C000020BDE8F883DFF8D48000F069F8D8F822
:10163C0000301C4644BB29463046FFF7BFFF431C15
:10164C00044658D1D8F800402746002F43D1002C2F
:10165C004BD023683946304604EB030900F056FCA6
:10166C00814542D1216830466D1A2946FFF7A6FF05
:10167C0001303AD023682B442360D8F800305A68E4
:10168C0062BBC8F800700FE02268521B20D40B2AF2
:10169C0017D96119A342256018BF5960636808BF48
:1016AC00C8F8001062514B60304600F02FF804F17E
:1016BC000B00231D20F00700C21A1CBF1B1AA350DD
:1016CC00AFE76268A3420CBFC8F800205A60EBE792
:1016DC0023466468AEE73C467F68B6E71A465B680B
:1016EC00A342FBD100235360DEE70C23304633606A
:1016FC0000F00CF894E70560D6E700BF5403002017
:10170C000148FFF710BF00BF4C0300200148FFF752
:10171C000BBF00BF4C030020936810B4013B002B9F
:10172C00936007DA9469A34201DB0A2902D110BC49
:10173C00FFF7F4BD1368581C10601970084610BCF4
:10174C007047F8B506460F461446D518AC4201D181
:10175C00002007E03A46304614F8011BFFF7DCFF87
:10176C00431CF3D1F8BD00002DE9F0470D4614469B
:10177C001F4606469CB018B1036A0BB9FFF7E4FC90
:10178C006B6ED90705D4AB899A0502D4A86DFFF707
:10179C00CAFEAB891B0701D52B699BB9294630467C
:1017AC00FFF7FAFD70B16B6EDC0704D54FF0FF301C
:1017BC001CB0BDE8F087AB899805F7D4A86DFFF78E
:1017CC00B3FEF3E70023099320238DF8293030234F
:1017DC004FF001080397694F8DF82A30234699463C
:1017EC0013F8012B0AB1252AF9D1B9EB040A0BD055
:1017FC005346224629463046FFF7A3FF013000F03E
:10180C00A480099A5244099299F80030002B00F0F8
:10181C009C8000234FF0FF32CDE9052309F101092B
:10182C00049307938DF853301A934C46052214F801
:10183C00011B524800F07AFB049BD0B9D90644BF77
:10184C0020228DF853201A0744BF2B228DF85320E9
:10185C0099F800202A2A13D04C4600204FF00A0C8D
:10186C00079A214611F8013B303B092B49D968B93D
:10187C0013E0C01B08FA00F01843A1460490D4E70B
:10188C00039A111D12680391002A01DB079204E0F0
:10189C00524243F002030792049323782E2B0AD171
:1018AC0063782A2B32D1039B02341A1D1B680392D6
:1018BC0043EAE3730593DFF8C89003224846217886
:1018CC0000F034FB38B14022049BA0EB09008240AD
:1018DC0013430134049314F8011B062229488DF894
:1018EC00281000F023FB00283ED0274818BB039B90
:1018FC00073323F0070308330393099B034409932D
:10190C006CE70C4601200CFB0232AAE700234FF0D7
:10191C000A0C194601340593204610F8012B303A75
:10192C00092A03D9002BC6D00591C4E7044601232C
:10193C000CFB0121F0E703AB00932A463046134B16
:10194C0004A9AFF30080431CD7D16B6ED90705D423
:10195C00AB899A0502D4A86DFFF7E6FDAB895B064F
:10196C003FF524AF099823E703AB00932A46304692
:10197C00064B04A900F07EF8E5E700BFD120000873
:10198C00D7200008DB200008000000004F170008DB
:10199C002DE9F047164698468A680B69074693422C
:1019AC00B8BF1346336091F843200C46DDF8209005
:1019BC000AB1013333602368990642BF336802339E
:1019CC003360256815F0060506D104F1190AE368A1
:1019DC0032689B1AAB422BDC94F843302268003BF4
:1019EC0018BF0123920630D44146384604F1430215
:1019FC00C847013023D02368226903F00603042B67
:101A0C0014BF002533684FF0000608BFE56804F1E9
:101A1C001A0408BFED1A54F8123C08BF25EAE57504
:101A2C009342C4BF9B1AED18B5421AD1002008E0AE
:101A3C000123524641463846C847013003D14FF086
:101A4C00FF30BDE8F0870135C1E73020E11881F89F
:101A5C0043005A1C94F845102244023382F8431078
:101A6C00C2E70123224641463846C8470130E6D03A
:101A7C000136D9E72DE9F0430D7E85B0782D9046DF
:101A8C0007460C4699460C9E01F1430207D8622D7D
:101A9C000AD8002D00F0D780582D00F0BC8004F13E
:101AAC00420684F842503BE0A5F16303152BF6D8AF
:101ABC0001A151F823F000BF1D1B0008311B0008C9
:101ACC00AB1A0008AB1A0008AB1A0008AB1A0008D6
:101ADC00311B0008AB1A0008AB1A0008AB1A00083F
:101AEC00AB1A0008391C00085B1B0008EB1B000834
:101AFC00AB1A0008AB1A00085B1C0008AB1A0008F4
:101B0C005B1B0008AB1A0008AB1A0008F31B00089B
:101B1C0033681A1D1B68326004F1420684F84230A7
:101B2C000123A1E033682068191D3160060601D538
:101B3C001D6803E04506FBD5B3F90050002D03DA10
:101B4C002D236D4284F843300A235B4811E0216851
:101B5C003368080653F8045B02D4490648BFADB29B
:101B6C003360237E54486F2B5CD10823002184F80A
:101B7C0043106668002EA66005DB21682E4321F019
:101B8C000401216050D01646B5FBF3F103FB115C48
:101B9C0010F80CC006F801CDAC4663450D46F3D9E0
:101BAC00082B0BD12368DB0708D5236961689942A0
:101BBC00DEBF302306F8013C06F1FF36921B226192
:101BCC00434621463846CDF8009003AAFFF7E0FEC5
:101BDC0001304ED14FF0FF3005B0BDE8F0832368E3
:101BEC0043F0200323607825344884F8455023685B
:101BFC00316813F0800F51F8045B03D113F0400FE0
:101C0C0018BFADB23160D90744BF43F02003236045
:101C1C001DB11023AAE72848E7E7236823F0200327
:101C2C002360F6E70A23A1E71646B9E7336825686F
:101C3C00181D616930602E061B6801D5196002E021
:101C4C006806FBD51980002316462361B8E7336874
:101C5C0000211A1D32601E686268304600F066F979
:101C6C0008B1801B606063682361002384F84330F3
:101C7C00A6E73246414638462369C8470130A9D009
:101C8C0023689B0713D4E068039B9842B8BF18469F
:101C9C00A2E70123324641463846C847013099D065
:101CAC000135E36803995B1AAB42F2DCEBE70025E4
:101CBC0004F11906F5E700BFE2200008F320000844
:101CCC00B1F90C20F8B5160705460C4651D44B68F3
:101CDC00002B02DC0B6C002B49DDE66A002E46D093
:101CEC00002312F480522F682B6031D0626DA389CF
:101CFC00590705D56368D21A636B0BB1236CD21AE2
:101D0C0000232846E66A216AB047421CB4F90C301D
:101D1C0006D129681D2945D8274ACA40D60741D57E
:101D2C00002262602269D904226004D5421C01D1D0
:101D3C002B6803B96065616B2F60C1B104F144037A
:101D4C00994202D02846FFF7F1FB002363630EE0B3
:101D5C0001232846216AB0470246501CC7D12B6884
:101D6C00002BC4D01D2B01D0162B19D12F600020B5
:101D7C001DE00F69002FFAD0930718BF00230E68DF
:101D8C0008BF4B69F61B0F608B60002EEFDD3346EE
:101D9C003A462846216AD4F828C0E047002807DCD8
:101DAC00B4F90C304FF0FF3043F04003A381F8BD81
:101DBC000744361AE9E700BF0100402038B50B692B
:101DCC0005460C4613B90025284638BD18B1036AE0
:101DDC000BB9FFF7B9F9B4F90C30002BF3D0626EE4
:101DEC00D00704D4990502D4A06DFFF79CFB2846BC
:101DFC002146FFF765FF636E0546DA07E4D4A38935
:101E0C009B05E1D4A06DFFF78FFBDDE770B50C46A9
:101E1C00B1F90E10154600291E4696B00ADAA189B2
:101E2C0011F0800113D14FF48062002031602A60E0
:101E3C0016B070BD6A4600F047F80028EFDB019938
:101E4C0001F47041A1F5005359425941EBE70021CF
:101E5C004022EAE78B8973B59E0705460C4607D5E9
:101E6C0004F14703236023610123636102B070BD59
:101E7C0001AB6A46FFF7CAFF009E28463146FFF7C2
:101E8C00BFFBB4F90C3038B99A05EFD423F0030337
:101E9C0043F00203A381E3E743F08003A381019B9A
:101EAC00C4E904062060002BE0D02846B4F90E10DB
:101EBC0000F01CF80028D9D0A38923F0030343F0C9
:101ECC000103A381D2E7000038B50023064D044678
:101EDC00084611462B6000F03FF8431C02D12B68DA
:101EEC0003B1236038BD00BF4803002038B5002380
:101EFC00054D044608462B6000F036F8431C02D111
:101F0C002B6803B1236038BD4803002038B500238B
:101F1C00054D044608462B6000F03EF8431C02D1E8
:101F2C002B6803B1236038BD48030020034610B56D
:101F3C00C9B202449342184601D1002003E0047850
:101F4C0001338C42F6D110BD5822024B4FF0FF30BA
:101F5C001A607047480300205822024B4FF0FF30A4
:101F6C001A607047480300205822024B00201A6068
:101F7C00704700BF480300205822024B4FF0FF303F
:101F8C001A607047480300205822024B4FF0FF3074
:101F9C001A60704748030020044A05491368002B57
:101FAC0008BF0B46184410601846704758030020B1
:101FBC005C03002002040608000000000102030478
:101FCC0001020304060708090000000000000000DD
:101FDC0001020304060708094572726F72210D0095
:101FEC00747269675F6F7574206973204F4E2E0D84
:101FFC0000000000747269675F696E206973204F7E
:10200C004E2E0D00747269675F6F757420697320B2
:10201C004F46462E0D000000747269675F696E2092
:10202C006973204F46462E0D00000000412074724B
:10203C0069675F6F75742070756C736520697320A8
:10204C0073656E742E0D00004120747269675F69B0
:10205C006E2070756C73652069732073656E742EB9
:10206C000D000000535953524546206D6F64653A7C
:10207C0020436F6E74696E756F75732E0D000000C2
:10208C00535953524546206D6F64653A2050756C18
:10209C007365722E204E756D3A2025640D0A000072
:1020AC006C6D6B5F636C6B5F67656E3A20556E6B26
:1020BC006E6F776E20636F6D6D616E643A202530A4
:1020CC0032580D0A00232D302B2000686C4C006513
:1020DC006667454647003031323334353637383948
:1020EC00414243444546003031323334353637387B
:1020FC003961626364656600F8B500BFF8BC08BC62
:10210C009E467047F8B500BFF8BC08BC9E467047A9
:04211C007501000841
:042120004D01000865
:1021240000A24A0400009000001000020000030610
:102134000004D1000563000670000C51000D040179
:10214400000B01010A0102100103440104210105ED
:102154002001060101074501080B01090A010A9043
:10216400010B44010C21010D00010E01010F0001BE
:10217400100B01110A0112800113500114200115E2
:102184000001160101170001180B01190A011A8038
:10219400011B50011C20011D00011E01011F000133
:1021A400200801210A012290012350012410012555
:1021B4000001260101270001280801290A012A90AB
:1021C400012B50012C10012D00012E01012F0001C3
:1021D400300B01310A01321001334401342101353D
:1021E40000013601013745013825013903013A015F
:1021F400013BB8013C00013D08013E01013F0501DE
:1022040040010141000142000143110144FF014525
:102214000001461901470E014802014942014A03DF
:10222400014B06014C00014D00014EC0014F7F01DE
:10223400500101510201520001530001547D015526
:1022440000015678015700015896015906015A00B9
:10225400015BD4015C20015D00015E1E015F0B0186
:1022640060000161040162640163000164000165AE
:1022740021016600016700016958016A20016B00B1
:10228400016E1301731001770001820001830001C4
:102294008480018500018800016821055500000043
:1022A40000000000030000000C0200209001002048
:1022B400000000000C02002074020020DC02002058
:1022C400000000000000000000000000000000000A
:1022D40000000000000000000000000000000000FA
:1022E40000000000000000000000000000000000EA
:0C22F400000000000000000000000000DE
:0400000508000FDD03
:00000001FF
